:020000040800F2
:10000000600900202D020008C1220008531E0008CC
:10001000BD22000847040008B925000800000000C0
:10002000000000000000000000000000C7220008DF
:100030004B04000800000000C5220008C922000887
:10004000470200084702000847020008470200086C
:1000500047020008470200084D0400084702000854
:10006000470200084702000847020008470200084C
:10007000470200084702000847020008470200083C
:10008000470200084702000847020008470200082C
:10009000470200084702000847020008470200081C
:1000A000470200084702000847020008470200080C
:1000B000E52200086D2300087D23000847020008A0
:1000C00047020008470200084702000847020008EC
:1000D000470200086525000847020008470200089B
:1000E00047020008470200084702000847020008CC
:1000F00047020008470200084702000847020008BC
:1001000047020008470200084702000847020008AB
:10011000470200084702000847020008470200089B
:10012000470200084702000847020008470200088B
:10013000470200084702000847020008470200087B
:10014000470200084702000847020008470200086B
:10015000470200084702000847020008470200085B
:10016000470200084702000847020008470200084B
:10017000470200084702000847020008000000008C
:10018000470200084702000800F002F800F03EF8BD
:100190000AA090E8000C82448344AAF10107DA45E2
:1001A00001D100F033F8AFF2090EBAE80F0013F0F6
:1001B000010F18BFFB1A43F0010318471C3F000052
:1001C0003C3F0000103A24BF78C878C1FAD85207E3
:1001D00024BF30C830C144BF04680C6070470000C1
:1001E0000023002400250026103A28BF78C1FBD840
:1001F000520728BF30C148BF0B6070471FB503F0DE
:1002000054FF00F0D5F81FBD10B510BD00F0E2F8A6
:100210001146FFF7F3FF03F031F900F000F903B4E2
:10022000FFF7F2FF03BC00F007F900000948804720
:1002300009480047FEE7FEE7FEE7FEE7FEE7FEE7C8
:10024000FEE7FEE7FEE7FEE704480549054A064BE0
:1002500070470000D12200088901000860030020D7
:1002600060090020600500206005002053EA020CB0
:1002700000F069802DE9F04B4FF00006002B1FBF06
:10028000B3FA83F503FA05F424FA05F65E4012BFCB
:100290001643B2FA82F502FA05F4C5F120051EBF35
:1002A00022FA05FC44EA0C04203556EA044C4FEAD5
:1002B000144418BF641C4FF000084FF0000990422E
:1002C00071EB030C39D3002919BFB1FA81F701FA98
:1002D00007F6B0FA80F700FA07F6C7F120071EBF4D
:1002E00020FA07FC46EA0C062037B6FBF4FCA7EB25
:1002F0000507103F07F01F0BCBF120060CFA0BFB94
:100300002CFA06F644BFB3460026202FA4BF5E4653
:100310004FF0000B5BEA060C08BF4FF0010B19EB26
:100320000B09ABFB027C48EB0608C01B06FB02CCAA
:100330000BFB03CC71EB0C01C1E70B4602464146B7
:100340004846BDE8F08B13B54FF000004FF00001B8
:10035000AFF30080BDE81C4070474FF0000200B5CD
:10036000134694469646203922BFA0E80C50A0E8D8
:100370000C50B1F12001BFF4F7AF090728BFA0E886
:100380000C5048BF0CC05DF804EB890028BF40F852
:10039000042B08BF704748BF20F8022B11F0804F94
:1003A00018BF00F8012B7047704770477047000076
:1003B00070B5064C7C44064D7D4403E02068204423
:1003C0008047241DAC42F9D170BD0000403D0000C3
:1003D000403D0000754600F02BF8AE46050069462A
:1003E000534620F00700854618B020B5FFF72CFFD4
:1003F000BDE820404FF000064FF000074FF0000826
:100400004FF0000B21F00701AC46ACE8C009ACE8A6
:10041000C009ACE8C009ACE8C0098D46704710B50A
:100420000446AFF300802046BDE81040FFF7F7BE5A
:10043000004870470003002001491820ABBEFEE7CA
:1004400026000200704700BFFEE7704710B501208C
:1004500000F0A6F810BD72B600BFFEE770B5044606
:10046000A56D00F0ABF9064694F83500022808D0D7
:100470008020606500BF002084F8340000BF0120A8
:1004800070BD2068006820F01600216808602068B0
:10049000406920F0800021684861206C08B9A06C98
:1004A00028B12068006820F00800216808602068F2
:1004B000006820F001002168086010E000F07EF97B
:1004C000801B05280BD920206065032084F83500A7
:1004D00000BF002084F8340000BF0320D0E720686C
:1004E000006800F001000028E8D194F85C103F207B
:1004F0008840A860012084F8350000BF002084F8FF
:10050000340000BF00BFBBE7014691F83500022868
:1005100003D08020486501207047052081F8350010
:100520000868006820F001000A6810600020F3E706
:1005300070B5044600F042F906462546681C10B125
:1005400004480078054400BF00F038F9801BA84239
:10055000FAD370BD2400002010B50446012C07D04A
:10056000042C0ED0102C11D0B4F5007F13D103E071
:100570000A4802F09FFC0EE00848343002F09AFC72
:1005800009E00648683002F095FC00BF03489C3043
:1005900002F090FC00BF00BF10BD00004000002032
:1005A00010B5044604480068204020B102480460A9
:1005B0002046FFF7D1FF10BD143C0140F8B50246BC
:1005C0000B460025002400200021D6E0012606FA73
:1005D00001F51E6806EA0504AC4274D11E7906F0E6
:1005E0000306012E04D01E7906F00306022E13D155
:1005F00090684F000326BE40B0434F00DE68BE4007
:1006000030439060506801268E40B0431E79C6F397
:1006100000168E40304350601E7906F00306032E0C
:1006200009D0D0684F000326BE40B0434F009E68FB
:10063000BE403043D0601E7906F00306022E13D16F
:10064000CF0802F1200656F827004E07F70E0F26B6
:10065000BE40B0434F07FF0E1E69BE403043CF0877
:1006600002F1200646F8270010684F000326BE401E
:10067000B0431E7906F003064F00BE4030431060C1
:100680005E6806F44036002E76D000BF0026009645
:100690003C4E366846F480463A4F3E603E463668E9
:1006A00006F48046009600BF00BF374E8F0856F80C
:1006B00027008E07370F0F26BE40B043334EB2429D
:1006C00002D1002624E057E0314EB24201D101268A
:1006D0001EE0304EB24201D1022619E02E4EB24247
:1006E00001D1032614E02D4EB24201D104260FE0C1
:1006F0002B4EB24201D105260AE02A4EB24201D168
:10070000062605E0284EB24201D1072600E0082661
:100710008F073F0FBE4030431B4E8F0846F827001F
:10072000224E3068A0435E6806F4801606B120436E
:100730001E4E3060361D3068A0435E6806F4001619
:1007400006B12043194E361D3060184E361F3068F2
:10075000A0435E6806F4003606B12043134E361FF0
:100760003060361F3068A0435E6806F4803606B1FC
:1007700020430E4E083E3060491C1029FFF426AF7E
:10078000F8BD000044380240083801400000024033
:100790000004024000080240000C02400010024029
:1007A0000014024000180240001C0240083C0140B6
:1007B0000AB1816101E00B04836170470148006860
:1007C000704700001C0000200348006803490978B6
:1007D00008440149086070471C00002024000020E4
:1007E00010B50D48006840F400700B4908600846D9
:1007F000006840F4806008600846006840F480703B
:100800000860032000F0A2F80F2000F007F800F0C5
:100810002BF8002010BD0000003C024070B50446DB
:100820000E4800784FF47A71B1FBF0F00C4909687A
:10083000B1FBF0F5284600F02BFC08B1012070BD9B
:10084000102C07D200222146501E00F041F8054826
:10085000046001E00120F2E70020F0E7240000201E
:10086000280000202000002008B500BF00200090D4
:100870000E48006840F480400C4908600846006853
:1008800000F48040009000BF00BF00BF0020009037
:10089000081F006840F08050091F08600846006883
:1008A00000F08050009000BF00BF08BD44380240F7
:1008B00001460846002809DB00F01F0301229A4088
:1008C00043099B0003F1E023C3F8002100BF7047F8
:1008D0002DE9F05F80460D461646002702F050FADB
:1008E000074639462A46334601F00700C0F1070A99
:1008F000BAF1040F02D94FF0040A01E0C0F1070A6F
:10090000D14600F1040ABAF1070F02D24FF0000AF3
:1009100001E0A0F1030AD4464FF0010A0AFA09FAED
:10092000AAF1010A0AEA020A0AFA0CFA4FF0010BCC
:100930000BFA0CFBABF1010B0BEA030B4AEA0B04BD
:100940002146404602F008FABDE8F09F00BF00F0E3
:100950000702064B19684FF6FF031940044B0B437F
:1009600043EA0221014B196000BF70470CED00E023
:100970000000FA0570B504460D460CB9012070BDA3
:100980005848006800F00700A84209D255490D7088
:100990000846006800F00700A84201D00120EEE7F9
:1009A000207800F0020002281DD1207800F0040019
:1009B000042805D14C48006840F4E0504A490860DA
:1009C000207800F00800082805D14748006840F466
:1009D0006040454908604448006820F0F000A16884
:1009E000084341490860207800F00100A8B360681E
:1009F000012807D13C4808380068C0F34040B8B926
:100A00000120BCE76068022802D06068032807D193
:100A1000354808380068C0F3406048B90120AEE7A7
:100A2000314808380068C0F3400008B90120A6E743
:100A30002D48006820F00300616808432A490860D7
:100A4000FFF7BCFE064609E0FFF7B8FE801B41F247
:100A50008831884202D9032091E707E022480068E4
:100A600000F00C006168B0EB810FEDD11D4800680B
:100A700000F00700A84209D91A490D70084600681D
:100A800000F00700A84201D0012078E7207800F0AC
:100A90000400042807D11448006820F4E050E168FD
:100AA000084311490860207800F00800082808D1A0
:100AB0000D48006820F46040216940EAC1000A49FD
:100AC000086000F03FF808490968C1F30311074ABC
:100AD000515CC8400649086006480068FFF79EFE62
:100AE00000204CE7003C024008380240BE400008AD
:100AF0002800002020000020014800687047000006
:100B00002800002000B5FFF7F7FF04490968C1F38A
:100B10008221034A515CC84000BD000008380240F1
:100B2000CE40000800B5FFF7E7FF04490968C1F3AC
:100B30004231034A515CC84000BD00000838024001
:100B4000CE4000082DE9F047002400250026A146EC
:100B50002548006800F00C0020B1042805D00828C2
:100B60003AD105E0DFF8849039E0DFF8849036E090
:100B70001D48001F006800F03F041B48001F00686C
:100B800000F4800078B11A481749091F0968C1F3B9
:100B90008811A0FB01700146224600233846FFF76A
:100BA00065FB05460EE011480F49091F0968C1F3AE
:100BB0008811A0FB01700146224600233846FFF74A
:100BC00055FB05460848001F0068C0F30140401C63
:100BD0004600B5FBF6F902E0DFF8109000BF00BF59
:100BE0004846BDE8F0870000083802400024F400C1
:100BF00000127A00F8B504460CB90120F8BD20783F
:100C000000F00100002874D0F948006800F00C00E2
:100C100004280DD0F648006800F00C00082813D115
:100C2000F348001F006800F48000B0F5800F0BD17E
:100C3000EF4808380068C0F34040002859D0606889
:100C4000002856D10120D9E700BF6068B0F5803F89
:100C500008D1E7480838006840F48030E449083992
:100C600008601EE06068B0F5A02F0DD1E04808389C
:100C7000006840F48020DE490839086008460068B2
:100C800040F4803008600CE0D9480838006820F44F
:100C90008030D749083908600846006820F4802071
:100CA000086000BF606890B1FFF788FD054606E068
:100CB000FFF784FD401B642801D903209EE7CC4840
:100CC00008380068C0F340400028F1D011E0FFF779
:100CD00075FD054606E0FFF771FD401B642801D94C
:100CE00003208BE7C24808380068C0F34040002862
:100CF000F1D1207800F0020002285FD1BC480068E2
:100D000000F00C0058B1BA48006800F00C00082848
:100D10001CD1B748001F006800F48000B0B9B44887
:100D200008380068C0F3400020B1E068012801D015
:100D3000012063E7AE480838006820F0F800216918
:100D400040EAC100AA490839086037E0E06800B30A
:100D50000120A8490860FFF731FD054606E0FFF7CE
:100D60002DFD401B022801D9032047E7A048083881
:100D70000068C0F340000028F1D09D4808380068A2
:100D800020F0F800216940EAC1009949083908605B
:100D900014E0002097490860FFF710FD054606E0C3
:100DA000FFF70CFD401B022801D9032026E79048DD
:100DB00008380068C0F340000028F1D1207800F026
:100DC000080008282CD16069A8B101208A49086070
:100DD000FFF7F4FC054606E0FFF7F0FC401B022895
:100DE00001D903200AE782486C300068C0F3400054
:100DF0000028F1D014E000207F490860FFF7DEFCF6
:100E0000054606E0FFF7DAFC401B022801D9032063
:100E1000F4E677486C300068C0F340000028F1D158
:100E2000207800F00400042870D100277048383082
:100E3000006800F0805090B900BF002000906C481E
:100E40003830006840F08050694938310860084601
:100E5000006800F08050009000BF00BF0127674885
:100E6000006800F48070B0B96448006840F4807095
:100E700062490860FFF7A2FC054606E0FFF79EFC0A
:100E8000401B022801D90320B8E65C48006800F442
:100E900080700028F2D000BFA068012808D1544813
:100EA0006830006840F001005149683108601DE079
:100EB000A06805280DD14E486830006840F0040055
:100EC0004B49683108600846006840F0010008603E
:100ED0000CE047486830006820F001004449683160
:100EE00008600846006820F00400086000BFA068A1
:100EF000A8B1FFF763FC054609E0FFF75FFC401B64
:100F000041F28831884202D9032077E626E038484A
:100F100068300068C0F340000028EED013E0FFF70F
:100F20004DFC054608E0FFF749FC401B41F28831C3
:100F3000884201D9032061E62D4868300068C0F37B
:100F400040000028EFD1012F07D129483830006830
:100F500020F0805026493831086000BFA069002881
:100F600045D02348006800F00C0008285DD0A06937
:100F7000022845D100201F490866FFF71FFC0546DF
:100F800006E0FFF71BFC401B022801D9032035E6D1
:100F9000174808380068C0F340600028F1D1D4E950
:100FA00007010843616A40EA81110122A06AC2EB8D
:100FB000500041EA00412C20005D41EA00600C49EC
:100FC000091F086001200B490866FFF7F7FB05467B
:100FD00006E0FFF7F3FB401B022801D903200DE6D2
:100FE000034808380068C0F340600028F1D049E0A9
:100FF0000838024000004742800E4742007000401F
:10100000002021490866FFF7D9FB054606E0FFF7F7
:10101000D5FB401B022801D90320EFE51B480068DF
:10102000C0F340600028F2D12CE0A069012800D173
:10103000E4E51648001D0668A069012820D006F4E2
:101040008001E06981421BD106F03F01206A8142A4
:1010500016D147F6C0703040616AB0EB811F0FD1E6
:1010600006F440310122A06AC2EB5000B1EB004F00
:1010700006D106F070612C20005DB1EB006F01D04D
:101080000120BBE50020B9E50000474200380240DE
:1010900070B504462546681EB0F1807F01D301205B
:1010A0000FE0681E4FF0E02148610F214FF0FF3044
:1010B00001F052FE00204FF0E02188610720086116
:1010C000002070BD7047704730B502460B4600BF28
:1010D00092F83C00012801D1022030BD012082F8A5
:1010E0003C0000BF022082F83D0010684468106890
:1010F000816824F070041868044310684460184D37
:101100001068A8421BD01068B0F1804F17D0154D61
:101110001068A84213D0144D1068A8420FD0134D88
:101120001068A8420BD0124D1068A84207D0114D8C
:101130001068A84203D0104D1068A84205D121F0D4
:1011400080015868014310688160012082F83D00E9
:1011500000BF002082F83C0000BF00BFBDE70000D8
:10116000000001400004004000080040000C004066
:1011700000040140004001400018004010B5044642
:101180000CB9012010BD94F83D0028B9002084F866
:101190003C00204600F026F8022084F83D00211D86
:1011A000206801F0F3F8012084F8460000BF84F8BD
:1011B0003E0001213F2001554020015541200155AD
:1011C00000BF00BF012084F84200432001554420A5
:1011D00001554520015500BF012084F83D00002045
:1011E000D0E7000038B504463849206888420FD15E
:1011F00000BF002000903648006840F001003449EC
:1012000008600846006800F00100009000BF5BE045
:101210002068B0F1804F1AD100BF002000902C4808
:10122000001F006840F001002949091F08600846B6
:10123000006800F00100009000BF00BF00221146CE
:101240001C20FFF745FB1C20FFF732FB3CE0214947
:10125000206888421AD100BF002000901C48001F5F
:10126000006840F002001A49091F0860084600683B
:1012700000F00200009000BF00BF002211461D20B8
:10128000FFF726FB1D20FFF713FB1DE01249206826
:10129000884219D100BF002000900D48001F00684F
:1012A00040F004000A49091F08600846006800F081
:1012B0000400009000BF00BF002211461E20FFF76F
:1012C00007FB1E20FFF7F4FA38BD000000000140C4
:1012D000443802400004004000080040014691F8F4
:1012E0003D00012801D001207047022081F83D0017
:1012F0000868C06840F001000B68D8601A4B0868A5
:1013000098421BD00868B0F1804F17D0174B08687F
:10131000984213D0164B086898420FD0154B0868B6
:1013200098420BD0144B0868984207D0134B0868BA
:10133000984203D0124B086898420CD10868806824
:1013400000F00702062A0CD00868006840F001008F
:101350000B68186005E00868006840F001000B6841
:1013600018600020C0E700000000014000040040B9
:1013700000080040000C0040000401400040014013
:10138000001800402DE9F04104460D46002700BF3B
:1013900094F83C00012802D10220BDE8F081012030
:1013A00084F83C0000BF022084F83D002068866875
:1013B00026F0770626F47F46206886602868502845
:1013C00033D00CDC202850D004DC00284BD010286F
:1013D00051D149E0302849D040284CD139E060282B
:1013E0002DD0702807D0B0F5805F03D0B0F5005F36
:1013F00041D10DE041E0D5E902136A68206801F0AF
:1014000042F82068866846F077062068866034E0F7
:10141000D5E902136A68206801F035F82068806811
:1014200040F480402168886027E0EA6869682068A5
:1014300001F04BFA5021206801F03EFA1DE0EA6805
:101440006968206801F054FA6021206801F034FADC
:1014500013E0EA686968206801F037FA40212068E3
:1014600001F02AFA09E000BF00BF00BF2968206828
:1014700001F022FA01E0012700BF00BF012084F83B
:101480003D0000BF002084F83C0000BF384684E7E0
:10149000704710B5044620680069C0F34000D8B119
:1014A0002068C068C0F34000B0B16FF0020021684E
:1014B0000861012020772068806900F0030018B1DE
:1014C0002046FFF7E5FF05E0204600F0DDF8204666
:1014D00000F0AAF90020207720680069C0F380009E
:1014E000D8B12068C068C0F38000B0B16FF00400CC
:1014F00021680861022020772068806900F440702C
:1015000018B12046FFF7C4FF05E0204600F0BCF804
:10151000204600F089F90020207720680069C0F398
:10152000C000D8B12068C068C0F3C000B0B16FF08F
:10153000080021680861042020772068C06900F055
:10154000030018B12046FFF7A3FF05E0204600F096
:101550009BF8204600F068F9002020772068006999
:10156000C0F30010D8B12068C068C0F30010B0B15B
:101570006FF0100021680861082020772068C0699A
:1015800000F4407018B12046FFF782FF05E02046C6
:1015900000F07AF8204600F047F900202077206814
:1015A000006900F0010058B12068C06800F0010037
:1015B00030B16FF0010021680861204600F0BCF9ED
:1015C00020680069C0F3C01058B12068C068C0F33B
:1015D000C01030B16FF08000216808612046FFF72D
:1015E00071FD20680069C0F3801058B12068C068A0
:1015F000C0F3801030B16FF04000216808612046D0
:1016000000F09BF920680069C0F3401058B12068D1
:10161000C068C0F3401030B16FF02000216808614D
:101620002046FFF750FD10BD10B586B004461421CA
:1016300001A8FEF792FE1149206888421CD100BF24
:10164000002000900E48006840F001000C4908603E
:101650000846006800F00100009000BF00BF0F20A6
:101660000190022002900020039004900220059037
:1016700001A90448FEF7A2FF06B010BD000C00400F
:10168000303802400000024070472DE9F041044626
:101690000D461646002700BF94F83C00012802D1F1
:1016A0000220BDE8F081012084F83C0000BF36B183
:1016B000042E1BD0082E31D00C2E5ED145E02946D9
:1016C000206801F05BF82068806940F0080021681C
:1016D00088612068806920F00400216888612068A2
:1016E0008069296908432168886148E029462068A3
:1016F00000F0D4FE2068806940F4006021688861B1
:101700002068806920F48060216888612068806991
:10171000296940EA01202168886130E02946206873
:1017200001F064F82068C06940F008002168C861D1
:101730002068C06920F004002168C8612068C06981
:10174000296908432168C86119E02946206801F029
:1017500089F82068C06940F400602168C861206889
:10176000C06920F480602168C8612068C069296967
:1017700040EA01202168C86101E0012700BF00BFE5
:1017800000BF002084F83C0000BF384689E710B550
:1017900004460CB9012010BD94F83D0028B9002082
:1017A00084F83C00204600F025F8022084F83D0033
:1017B000211D206800F0EAFD012084F8460000BFEA
:1017C00084F83E0001213F20015540200155412071
:1017D000015500BF00BF012084F84200432001559D
:1017E000442001554520015500BF012084F83D00EB
:1017F0000020D0E708B50A4A016891420FD100BF26
:10180000002100910749096841F00801054A11606B
:101810001146096801F00801009100BF00BF08BD32
:10182000000C0040403802407047000070B504468C
:101830000D4615B994F83E000BE0042D02D13F206F
:10184000005D06E0082D02D14020005D01E041204E
:10185000005D012801D0012070BD1DB9022084F86F
:101860003E000EE0042D03D102213F20015508E087
:10187000082D03D102214020015502E00221412020
:10188000015501222946206800F0ECFD234920681B
:10189000884203D022492068884201D1012000E01B
:1018A000002028B12068406C40F400402168486462
:1018B0001A49206888421BD02068B0F1804F17D0A9
:1018C00018492068884213D01749206888420FD0F1
:1018D0001649206888420BD011492068884207D0F9
:1018E00013492068884203D01249206888420CD1ED
:1018F0002068806800F00706062E0CD0206800687B
:1019000040F001002168086005E02068006840F0B0
:1019100001002168086000209EE7000000000140EF
:10192000000401400004004000080040000C00409A
:1019300000400140001800407047704770477047F2
:1019400010B5044600BF00BF21680C3151E8001FEC
:1019500021F4907021680C3141E80002002AF3D193
:1019600000BF00BF00BF2168143151E8001F21F003
:1019700001002168143141E80002002AF3D100BFC0
:10198000206B01280ED100BF00BF21680C3151E847
:10199000001F21F0100021680C3141E80002002AEC
:1019A000F3D100BF2068406900F04000402826D1F4
:1019B00000BF00BF2168143151E8001F21F0400032
:1019C0002168143141E80002002AF3D100BFA06B66
:1019D00050B11148A16B0865A06BFEF795FDC0B131
:1019E000A06B016D884714E00020E085202084F87A
:1019F0003E00002020632046FFF7A1FF09E0002001
:101A0000E085202084F83E00002020632046FFF778
:101A100096FF002010BD00003D2D0008704700001B
:101A20002DE9F84F0446206805682068C6682068DC
:101A300047694FF00009CA4605F00F09B9F1000FD8
:101A40000AD105F0200038B106F0200020B1204670
:101A500001F078F8BDE8F88FB9F1000F7CD007F0FD
:101A6000010018B906F49070002875D005F0010047
:101A700030B106F4807018B1206C40F00100206491
:101A800005F0040030B107F0010018B1206C40F0FF
:101A90000200206405F0020030B107F0010018B127
:101AA000206C40F00400206405F0080048B106F006
:101AB000200010B907F0010018B1206C40F00800B8
:101AC0002064206C002846D005F0200028B106F0E4
:101AD000200010B1204601F035F820684069C0F3BD
:101AE000801A206C00F0080010B9BAF1000F2DD058
:101AF000204601F0D3F82068406900F040004028FB
:101B000020D100BF00BF2168143151E8001F21F02F
:101B100040002168143141E80002002AF3D100BFDF
:101B2000A06B50B17548A16B0865A06BFEF7ECFC8B
:101B300088B1A06B016D88470DE02046FFF76EFF6E
:101B400009E009E02046FFF769FF04E02046FFF7BF
:101B500065FF002020647DE7206B012876D105F029
:101B60001000002872D006F010000028FAD000BF44
:101B70000020009020680068009020684068009075
:101B800000BF00BF2068406900F0400040285ED1DF
:101B9000A06B006840681FFA80F8B8F1000F54D0BD
:101BA000A08D404551DDA4F82E80A06BC069B0F532
:101BB000807F43D000BF00BF21680C3151E8001F77
:101BC00021F4807021680C3141E80002002AF3D131
:101BD00000BF00BF00BF2168143151E8001F21F091
:101BE00001002168143141E80002002AF3D100BF4E
:101BF00000BF00BF2168143151E8001F21F04000F0
:101C00002168143141E80002002AF3D100BF2020EE
:101C100084F83E000020206300BF00BF21680C3123
:101C200051E8001F21F0100021680C3141E800024A
:101C3000002AF3D100BFA06BFEF710FCA08DE28D4F
:101C4000801A81B22046FFF779FE03E740E0A08DBD
:101C5000E18D401A1FFA80F8E08DC0B3B8F1000F93
:101C600035D000BF00BF21680C3151E8001F21F4BE
:101C7000907021680C3141E80002002AF3D100BFC6
:101C800000BF00BF2168143151E8001F21F001009E
:101C90002168143141E80002002AF3D100BF20205E
:101CA00084F83E000020206300BF00BF21680C3193
:101CB00051E8001F21F0100021680C3141E80002BA
:101CC000002AF3D100BF41462046FFF737FEC1E6A8
:101CD00005F0800030B106F0800018B1204600F019
:101CE000ADFFB7E605F0400030B106F0400018B196
:101CF000204601F009F8ADE600BFABE6292D00084B
:101D000010B504460CB9012010BDA06900B100E077
:101D100000BF94F83D0028B9002084F83C0020461C
:101D200000F028F8242084F83D002068C06820F4E2
:101D300000502168C860204600F0EEFD2068006970
:101D400020F49040216808612068406920F02A0052
:101D5000216848612068C06840F400502168C8606C
:101D600000202064202084F83D0084F83E000020FC
:101D7000CAE7000010B586B00446142101A8FEF79A
:101D8000ECFA1F492068884238D100BF002000903B
:101D90001C48006840F010001A49086008460068B6
:101DA00000F01000009000BF00BF00BF00200090B6
:101DB00014481438006840F00100124914390860D2
:101DC0000846006800F00100009000BF00BF4FF41B
:101DD000C060019002200290002003900320049034
:101DE0000720059001A90848FEF7E8FB00221146EC
:101DF0002520FEF76DFD2520FEF75AFD06B010BD2B
:101E000000100140443802400000024070B5044612
:101E10000D46164694F83E00202816D105B10EB99D
:101E2000012070BD00BF94F83C00012801D10220C0
:101E3000F7E7012084F83C0000BF00202063324611
:101E40002946204600F068FBEBE70220E9E77047EF
:101E5000704700BFFEE7000000B587B0142102A85C
:101E6000FEF77BFA00BF002001906848006840F050
:101E70002000664908600846006800F020000190D4
:101E800000BF00BF00BF002001900846006840F07E
:101E9000800008600846006800F08000019000BFE4
:101EA00000BF00BF002001900846006840F0040019
:101EB00008600846006800F00400019000BF00BF01
:101EC00000BF002001900846006840F00100086053
:101ED0000846006800F00100019000BF00BF00BF8D
:101EE000002001900846006840F00800086008469D
:101EF000006800F00800019000BF00BF00220C2124
:101F00004348FEF755FC00224FF4C3714148FEF7E9
:101F10004FFC002203214048FEF74AFC02200290B9
:101F2000002003900120049002A93948FEF746FBE7
:101F30000C2002900120039000200490059002A93B
:101F40003348FEF73BFB102002904FF488100390BB
:101F50000220049002A92E48FEF730FB40F2012037
:101F600002904FF4881003900220049002A929489F
:101F7000FEF724FB4FF4C370029001200390002071
:101F80000490059002A92348FEF718FB0820029050
:101F9000002003900120049002A91E48FEF70EFBCA
:101FA0004FF480700290002003900120049002A959
:101FB0001A48FEF703FB0320029001200390002043
:101FC0000490059002A91448FEF7F8FA0420029044
:101FD0004FF4881003900220049002A90E48FEF7E7
:101FE000EDFA08200290002003900120049002A93D
:101FF0000948FEF7E3FA002211460620FEF768FCC6
:102000000620FEF755FC07B000BD00003038024046
:102010000014024000080240000C02400000024090
:1020200000B587B0002003900490059006900190C1
:1020300002901548154908600020486000211348A7
:1020400081604FF6FF71C1600021016141618161D2
:10205000FFF794F808B1FEF7FEF94FF480500390B3
:1020600003A90A48FFF78EF908B1FEF7F4F900203A
:102070000190029001A90548FFF726F808B1FEF784
:10208000EAF907B000BD0000000001405401002043
:1020900000B587B000200390049005900690019051
:1020A00002904FF08040144908605320486000219E
:1020B0001148816040F2E731C16000210161816116
:1020C000FFF75CF808B1FEF7C6F94FF480500390B3
:1020D00003A90948FFF756F908B1FEF7BCF900203B
:1020E0000190029001A90448FEF7EEFF08B1FEF747
:1020F000B2F907B000BD00009C01002000B587B018
:1021000000200390049005900690019002901548DD
:102110001549086040F2E7304860002112488160AC
:1021200040F2E731C1600021016180218161FFF748
:1021300025F808B1FEF78FF94FF48050039003A9FA
:102140000948FFF71FF908B1FEF785F90020019053
:10215000029001A90448FEF7B7FF08B1FEF77BF92A
:1021600007B000BD00040040E401002000B587B0C6
:10217000002003900490059006900190029014486E
:1021800014490860002048600021124881604FF621
:10219000FF71C160002101618161FEF7EFFF08B1AD
:1021A000FEF759F94FF48050039003A90948FFF74F
:1021B000E9F808B1FEF74FF900200190029001A95B
:1021C0000448FEF781FF08B1FEF745F907B000BDEE
:1021D000000800402C02002000B589B000200790C4
:1021E00008901C216846FEF7B8F824482449086086
:1021F0000020486000212248816047F6FF71C160DD
:10220000002101618161FFF7C2FA08B1FEF723F9ED
:1022100000200790089007A91948FEF755FF08B15C
:10222000FEF719F9602000900020019002900490C0
:10223000002269461248FFF728FA08B1FEF70BF9A9
:10224000042269460E48FFF720FA08B1FEF703F9A9
:10225000082269460A48FFF718FA08B1FEF7FBF8AA
:102260000C2269460648FFF710FA08B1FEF7F3F8AA
:102270000348FFF7D9F909B000BD0000000C004089
:102280007402002010B50B480B4908604FF4E13090
:102290004860002108488160C16001610C214161F2
:1022A00000218161C161FFF72BFD08B1FEF7D3F872
:1022B00010BD000000100140BC02002000BFFEE77E
:1022C00000BFFEE77047704710B5FEF77DFA10BDFE
:1022D0000348006840F4700001490860704700003E
:1022E00088ED00E010B51E48FFF7D3F81D480068E0
:1022F000401C1C49086008460068052190FBF1F26B
:1023000001FB120010B901201749487015480068F8
:102310000A2190FBF1F201FB120010B901201249D1
:1023200088701048006841F28831884202D101204B
:102330000D49C8700B48006843F69821884202D1C5
:102340000120094908710748006847F23051884266
:1023500002D10020034908600148FEF7BFFF10BD0D
:102360009C010020100000200000002010B5024851
:10237000FFF78FF810BD0000E401002010B50248FF
:10238000FFF787F810BD00002C02002010B502688E
:10239000294B98420ED0B0F1804F0BD0274B98427A
:1023A00008D0274B984205D0264B984202D0264BA6
:1023B000984203D122F070024B681A431E4B984298
:1023C00020D0B0F1804F1DD01C4B98421AD01C4B2E
:1023D000984217D01B4B984214D01B4B984211D0F7
:1023E0001A4B98420ED01A4B98420BD0194B984278
:1023F00008D0194B984205D0184B984202D0184B80
:10240000984203D122F44072CB681A4322F0800331
:102410004C6943EA040202608B68C3620B68836202
:10242000054B984202D0084B984201D10B690363D7
:102430000123436110BD0000000001400004004082
:1024400000080040000C0040000401400040014032
:10245000004401400048014000180040001C0040BA
:102460000020004030B501F01F05012404FA05F3F7
:10247000046A9C430462046A01F01F0502FA05F530
:102480002C43046230BD30B50C46816821F47F4195
:1024900042EA032525432943816030BD30B5056AF2
:1024A00025F010050562026A4368846924F4E0445B
:1024B00024F440740D6844EA052422F020028D685B
:1024C00042EA0512124DA84200D103E0114DA84284
:1024D00007D100BF22F08002CD6842EA051222F047
:1024E00040020B4DA84202D00A4DA84209D123F464
:1024F000806323F400634D6943EA85038D6943EAF1
:102500008503436084614D688563026230BD0000CD
:10251000000001400004014010B5034699629A850D
:10252000DA8500201864222083F83E0000BF0020D6
:1025300083F83C0000BF186928B11868C06840F4EF
:1025400080701C68E0601868406940F001001C68F9
:1025500060611868C06840F020001C68E0600020DE
:1025600010BD000008B51248FFF75AFA104800687D
:10257000006800F01000102818D10D480068C068ED
:1025800000F0100090B100BF0020009008480068E3
:1025900000680090064800684068009000BF00BFD7
:1025A0000348FFF7CDF901200249087008BD00007B
:1025B000BC0200200000002000BFFEE700B593B081
:1025C000302107A8FDF7C9FE142102A8FDF7C5FEBA
:1025D00000BF002001902448006840F0805022494C
:1025E00008600846006800F08050019000BF00BFFE
:1025F00000BF002001901D48006840F480401B4946
:1026000008600846006800F48040019000BF00BFE9
:10261000012007900004089002200D9041050E91C2
:1026200004210F91A82110910221119104211291EE
:1026300007A8FEF7DFFA08B1FDF70DFF0F200290A3
:1026400002200390002004904FF4A05005904FF416
:1026500080500690052102A8FEF78CF908B1FDF71D
:10266000FAFE13B000BD0000403802400070004088
:1026700080ED040A7047000010B52DED068B04466E
:1026800094ED060A84ED070A94ED050A84ED060A26
:1026900094ED040AD4ED030A30EE600A84ED050AD5
:1026A00094ED050AD4ED060A30EE600AD4ED000A76
:1026B00020EE200AB0EE408A94ED010AD4ED050A1E
:1026C00020EE200AF0EE408A94ED050AD4ED060AC9
:1026D000B0EE001A01EE600AD4ED070A30EE200ACF
:1026E000D4ED020A20EE200AB0EE409A94ED080ADA
:1026F00078EE280A70EE890A30EE200A84ED080A86
:1027000094ED080A10EE101A084601F05DFC41EC49
:102710001A0B9FED120B53EC102B01F035FB04D27A
:102720009FED100A84ED080A13E094ED080A10EEFC
:10273000101A084601F048FC41EC1A0B9FED0A0BF9
:1027400053EC102B01F0E6F903D29FED090A84ED5A
:10275000080A94ED080ABDEC068B10BD9A99999968
:1027600099990D40CDCC6C409A99999999990DC041
:10277000CDCC6CC080ED030A7047000030B5056A0F
:1027800025F001050562026A4368846924F070043B
:1027900024F003040D682C4322F002028D682A43C2
:1027A000104DA84200D103E00F4DA84206D100BF52
:1027B00022F00802CD682A4322F00402094DA84203
:1027C00002D0094DA84207D123F4807323F400738B
:1027D0004D692B438D692B43436084614D6845638C
:1027E000026230BD000001400004014030B5056ABE
:1027F00025F480750562026A4368C46924F0700498
:1028000024F003040D682C4322F400728D6842EA20
:102810000522124DA84200D103E0114DA84207D174
:1028200000BF22F40062CD6842EA052222F48062F1
:102830000A4DA84202D00A4DA84209D123F4805380
:1028400023F400534D6943EA05138D6943EA0513E8
:102850004360C4614D68C563026230BD0000014041
:102860000004014030B5056A25F480550562036A0D
:102870004468C26922F4E04222F440720D6842EAE0
:10288000052223F400538D6843EA0533084DA8421E
:1028900002D0084DA84204D124F480444D6944EA92
:1028A00085144460C2614D680564036230BD000058
:1028B00000000140000401400A46816821F07001D7
:1028C00042F0070319438160704730B50B46144648
:1028D000026A056A25F001050562816921F0F001AF
:1028E00041EA041122F00A021A438161026230BDFA
:1028F00030B50B461446056A25F01005056281695E
:10290000026A21F4704141EA043122F0A00242EA55
:1029100003128161026230BD2DE9F84F0446206840
:10292000006920F44050E16808432168086121698A
:10293000A068084361690843E16908430090206882
:10294000C06849F20C618843009908432168C86057
:102950002068406920F44070A169084321684861FB
:1029600076492068884203D075492068884203D19F
:10297000FEF7D8F8814602E0FEF7C4F88146E06928
:10298000B0F5004F6CD102206168A0FB01500346F6
:102990001920A9FB007001462A463846FDF766FC5F
:1029A0006421B0FBF1F04FEA001A02206168A0FB3D
:1029B00001510B461920A9FB00712A463846FDF744
:1029C00055FC834602206168A0FB01500346192094
:1029D000A9FB00712A463846FDF748FC6421B0FB8C
:1029E000F1F000EBC00101EB0010ABEB80003221F5
:1029F00001EBC0006421B0FBF1F000F0F8000AEB3D
:102A0000400A02206168A0FB015003461920A9FB7F
:102A1000007001462A463846FDF728FC834602200E
:102A20006168A0FB015003461920A9FB00712A46EA
:102A30003846FDF71BFC6421B0FBF1F000EBC00150
:102A400001EB0010ABEB8000322101EBC0006421F0
:102A5000B0FBF1F000F007005044216888606AE0A4
:102A600004206168A0FB015003461920A9FB0070F7
:102A700001462A463846FDF7F9FB82460420616884
:102A8000A0FB015003461920A9FB007001462A460D
:102A90003846FDF7EBFB6421B0FBF1F000EBC00121
:102AA00001EB0010AAEB8000322101EB0010642141
:102AB000B0FBF1F000F0F00A04206168A0FB0170A7
:102AC00003461920A9FB00513A462846FDF7CEFBE4
:102AD0006421B0FBF1F00AEB001A04206168A0FB4E
:102AE00001510B461920A9FB00712A463846FDF713
:102AF000BDFB834604206168A0FB015003461920FA
:102B0000A9FB007001462A463846FDF7AFFB642159
:102B1000B0FBF1F000EBC00101EB0010ABEB80006B
:102B2000322101EB00106421B0FBF1F000F00F0046
:102B3000504421688860BDE8F88F00000010014013
:102B400000140140F8B5044694F83E00222873D1E1
:102B5000A068B0F5805F0CD1206950B90025A66A45
:102B600020684068C0F308003080A06A801CA06222
:102B700015E0A56A0026A068B0F5805F03D0A068C4
:102B800028B9206918B920684068287004E02068D6
:102B9000406800F07F002870A06A401CA062E08DB1
:102BA000401E80B2E085002844D12068C06820F033
:102BB00020002168C8602068C06820F48070216807
:102BC000C8602068406920F0010021684861202029
:102BD00084F83E00206B012826D10020206300BF2E
:102BE00000BF21680C3151E8001F21F0100021685E
:102BF0000C3141E80002002AF3D100BF20680068D0
:102C000000F0100010280AD100BF002000902068BA
:102C10000068009020684068009000BF00BFA18D50
:102C20002046FEF78BFE02E02046FFF710F9002059
:102C3000F8BD01E00020FBE70220F9E7014691F82A
:102C40003D00212828D18868B0F5805F0BD1086944
:102C500048B90A6A1088C0F308000B685860086A0F
:102C6000801C086205E00B6A581C086218780B6823
:102C70005860C88C401E80B2C88458B90868C068C3
:102C800020F080000B68D8600868C06840F0400001
:102C90000B68D860002070470220FCE700BF00BF2F
:102CA00002680C3252E8002F22F4907102680C3254
:102CB00042E80013002BF3D100BF00BF00BF026841
:102CC000143252E8002F22F001010268143242E867
:102CD0000013002BF3D100BF016B01290ED100BFFF
:102CE00000BF02680C3252E8002F22F01001026887
:102CF0000C3242E80013002BF3D100BF202180F8F2
:102D00003E1000210163704710B504462068C0687A
:102D100020F040002168C860202084F83D00204653
:102D2000FFF796F8002010BD70B50546AC6B00208B
:102D3000E085E0842046FEF771FE70BD70B5054663
:102D4000AC6B0020E085202084F83E00002020634A
:102D50002046FEF7F4FD70BD10B5002804DB0A071D
:102D6000130E054A135406E00A07140E034A00F036
:102D70000F031B1FD45410BD00E400E018ED00E069
:102D800002480068C0F30220704700000CED00E02C
:102D90002DE9F05F2DED068B05460F4690469946CE
:102DA000DDE910B6D5ED020AB0EE600A05F10C00BF
:102DB000FFF75EFCD5ED010AB0EE600A05F10C00EC
:102DC000FFF7D8FC05F10C00FFF756FC10EE10AA37
:102DD000504601F0F9F841EC1A0B9FED310B53EC22
:102DE000102B00F0F9FC41EC190B9FED2F0B53EC6D
:102DF000102B00F0CBFE41EC180B00F045FE044612
:102E00004CB9002241463846FDF7D2FC0022594613
:102E10004846FDF7CDFC002C09DD0122414638462D
:102E2000FDF7C6FC002259464846FDF7C1FC002CC0
:102E300009DA002241463846FDF7BAFC012259461C
:102E40004846FDF7B5FC46B9002C01DD204600E000
:102E500060421749096848631DE0042E08D1002C20
:102E600001DD204600E0604211490968886312E0F4
:102E7000082E08D1002C01DD204600E060420C49FC
:102E80000968C86307E0002C01DD204600E06042CD
:102E9000074909680864BDEC068BBDE8F09F000097
:102EA000560E2DB29DEFF33F000000000088C34096
:102EB000740200200168491C016070470021016014
:102EC000704780ED020A7047C8220168514301EE45
:102ED000101AB8EE411AB0EE410A9FED041AF0EE56
:102EE000410A80EE201A80ED011A704700C0254487
:102EF0000146002008609FED1B0A81ED010A9FED4D
:102F0000190A81ED020A01F10C00B6EE000A81ED0A
:102F1000030A9FED150A81ED040A9FED140A81ED65
:102F2000050A9FED100A81ED060A9FED0E0A81ED5C
:102F3000070A9FED0C0A81ED080A9FED0A0A81ED50
:102F4000090A9FED080A81ED0A0A9FED060A80ED45
:102F5000080A9FED070A80ED090AA0F10C01084656
:102F600070470000000000000AD7A33D0AD7A33C29
:102F7000CDCC4C3D10B52DED028B044694ED3E1B9F
:102F8000B0EE410AF0EE610A51EC100B00F03EFB8E
:102F900008EE100AB0EE480A04F11000FFF791FFA6
:102FA00094ED401BB0EE410AF0EE610A51EC100BBB
:102FB00000F02CFB08EE100AB0EE480A04F14400C1
:102FC000FFF77FFF94ED421BB0EE410AF0EE610A7D
:102FD00051EC100B00F01AFB08EE100AB0EE480A94
:102FE00004F17800FFF76DFF94ED441BB0EE410A49
:102FF000F0EE610A51EC100B00F008FB08EE100A2D
:10300000B0EE480A04F1AC00FFF75BFFBDEC028BA9
:1030100010BD000010B52DED108B84B0044694ED6A
:10302000021BB0EE410AF0EE610A9FEDB11B53ECBA
:10303000112B51EC100B00F0CFFB41EC1E0B94ED6B
:10304000001BB0EE410AF0EE610A9FEDA91B53ECA4
:10305000112B51EC100B00F0BFFB41EC1F0B53EC9C
:103060001E2B00F005FB41EC1D0B94ED3C1BB0EE5C
:10307000410AF0EE610A53EC102B00F087FD41ECA1
:103080001B0B94ED3A2BB0EE420AF0EE620A94ED7F
:10309000382BB0EE421AF0EE621A53EC102B51ECC2
:1030A000110B00F0E5FA41EC1C0B53EC1B2B00F06C
:1030B000A1FE41EC1A0B9FED900B53EC102B00F08E
:1030C0008BFB41EC180B94ED021BB0EE410AF0EEC5
:1030D000610A9FED871B53EC112B51EC100B00F094
:1030E0007BFB41EC1E0B94ED001BB0EE410AF0EEB1
:1030F000610A9FED7F1B53EC112B51EC100B00F07C
:103100006BFB41EC1F0B53EC1E2B00F0B1FA41ECB2
:103110001D0B94ED3C1BB0EE410AF0EE610A53EC3E
:10312000102B00F033FD41EC1B0B94ED3A2BB0EE6D
:10313000420AF0EE620A94ED382BB0EE421AF0EE3D
:10314000621A53EC102B51EC110B00F053FE41ECC2
:103150001C0B53EC1B2B00F04DFE41EC1A0B9FEDAA
:10316000660B53EC102B00F037FB41EC190B94ED80
:10317000021BB0EE410AF0EE610A9FED5D1B53ECBD
:10318000112B51EC100B00F027FB41EC1E0B94EDC2
:10319000001BB0EE410AF0EE610A9FED551B53ECA7
:1031A000112B51EC100B00F017FB41EC1F0B53ECF3
:1031B0001E2B00F05DFA41EC1D0B94ED3C1BB0EEB4
:1031C000410AF0EE610A53EC102B00F0DFFC41ECF9
:1031D0001B0B94ED3A2BB0EE420AF0EE620A94ED2E
:1031E000382BB0EE421AF0EE621A53EC102B51EC71
:1031F000110B00F03DFA41EC1C0B53EC1B2B00F0C3
:1032000037FA41EC1A0B9FED3C0B53EC102B00F0FE
:10321000E3FACDE9020194ED021BB0EE410AF0EEB3
:10322000610A9FED331B53EC112B51EC100B00F096
:10323000D3FA41EC1E0B94ED001BB0EE410AF0EE08
:10324000610A9FED2B1B53EC112B51EC100B00F07E
:10325000C3FA41EC1F0B53EC1E2B00F009FA41ECB2
:103260001D0B94ED3C1BB0EE410AF0EE610A53ECED
:10327000102B00F08BFC41EC1B0B94ED3A2BB0EEC5
:10328000420AF0EE620A94ED382BB0EE421AF0EEEC
:10329000621A53EC102B51EC110B00F0ABFD41EC1A
:1032A0001C0B53EC1B2B00F0E3F941EC1A0B9FEDC8
:1032B000120B53EC102B00F08FFACDE90001B0EEA9
:1032C000480AF0EE680AB0EE493AF0EE693A9DED30
:1032D000022B9DED001B84ED3E0B84ED403B84ED05
:1032E000422B84ED441B00BF04B0BDEC108B10BD1D
:1032F0000000000000000040B8AF03E78C28DE3F6C
:1033000010B5044604F11000FFF7DEFD04F11000D3
:10331000FFF7D4FD04F14400FFF7D6FD04F14400AB
:10332000FFF7CCFD04F17800FFF7CEFD04F1780043
:10333000FFF7C4FD04F1AC00FFF7C6FD04F1AC00DB
:10334000FFF7BCFD10BD00001CB504460420009032
:10335000154B02221946019004F11000FFF718FDE9
:1033600000204FF48071104B8022CDE900101946E7
:1033700004F14400FFF70CFD082002210B4B012251
:10338000CDE90010194604F17800FFF701FD0C208B
:103390000821074B0422CDE90010194604F1AC00C6
:1033A000FFF7F6FC1CBD000000080240000C0240C4
:1033B0000014024070B504460D461646284600F03B
:1033C00092FBC4E90001304600F08DFBC4E9020124
:1033D00004F11000FFF78CFDA0F1100404F144008B
:1033E000FFF786FDA0F1440404F17800FFF780FDAB
:1033F000A0F1780404F1AC00FFF77AFDA0F1AC0471
:1034000004F1E0009FED120B80ED000B9FED100B1F
:1034100080ED020B9FED0E0B80ED040B00BFA0F1C1
:10342000E00404F1F8009FED0A0B80ED000B9FED26
:10343000080B80ED020B9FED060B80ED040B9FED5A
:10344000040B80ED060B00BFA0F1F804204670BD10
:10345000000000000000000010B5012211460548E0
:10346000FFF7A8FF04480021017041708170C1700E
:10347000017110BD300000200000002008B5FDF7EC
:10348000AFF9FFF79BF8FEF7E7FCFEF7A5FEFEF7A6
:1034900035FEFEF76BFEFEF7F5FEFEF7F9FDFEF7D3
:1034A000BFFD04214B48FEF7C1F94B48FDF716FF5D
:1034B0004A48FDF713FF00BF00200090484800680D
:1034C00000680090464800684068009000BF00BF58
:1034D00043480068C06840F0300041490968C8604E
:1034E000642240493E48FEF791FC71E041F2883089
:1034F000FDF71EF83C48C078012810D13B489FEDED
:103500003C0B9FED3D2B9FED3C1B80ED000B80EDB8
:10351000022B80ED041B00BF00203349C8703248E5
:103520000079012802D100202F4908712E48007827
:1035300090B30020324908603249086014E02948FD
:1035400030490968405C30382F4908602C480068D1
:1035500000EB8000096801EB400029490860294818
:103560000068401C274908601E4826490968405CDD
:10357000302809DB1B4823490968405C392803DCF3
:10358000204800680A28DAD3642216491448FEF756
:103590003DFC0020144908701348407870B113486E
:1035A000E038FFF737FD1148E038FFF7A9FE0F4874
:1035B000E038FFF7DFFC00200B4948700A488078AC
:1035C00030B10A48E038FFF7BFFE00200649887096
:1035D0008CE7000074020020E40100209C01002020
:1035E000BC02002048010020000000201001002043
:1035F0009A9999999999C93F00000000000000002C
:1036000008000020180000200C00002021F00042DB
:10361000A2F16052B2F5801F01F0004328BFD2F141
:103620007F6C0BD95FEA001C43EAC20242EB507088
:1036300018BF704728BF20F001007047B2F5801F07
:10364000BCBF184670474FEA410C1CF5001F02D260
:10365000084600F02FBD70B500F042FB0000008965
:10366000FFF7F6BF4FF00040A0F580007047000064
:1036700010B591EA030F48BF83F0004300F1C28305
:10368000841A71EB030C05D2121943EB0C03001BD7
:1036900061EB0C01DFF824E14FEA1154A4EB135C59
:1036A0001EEA430F18BF9EEA445F73D023EA0E035D
:1036B000DCF1200E21EA045143F4801332D322FAC4
:1036C0000CFE10EB0E0023FA0CFE41EB0E01CCF1C8
:1036D000200E03FA0EFE10EB0E0051F10001B1F5C1
:1036E000801FCCF1200E32D201EB045112FA0EF2FF
:1036F000BDE8104058BF7047401C38BF5FEA420227
:1037000018BF7047002814BF20F0010041F10001EC
:103710004FEA410313F5001F38BF7047A1F1C041C4
:1037200000F02CBB012A43EB0302ACF1200CDCF1CE
:103730001F0E32BF4FF0000E23FA0CF310EB030004
:1037400041EB0451B4EB115FD0D0A1EB045101F572
:10375000801149085FEA300001EB04510ED350F1AB
:10376000000038BF12FA0EFE08D1BDE81040C9E7CC
:10377000401C38BF5FEA4202CAD1C3E7BDE810402F
:103780004FEA410313F5001F38BF7047A1F1C04154
:1037900000F0F4BA9EEA445F08D011EA5E0FBDE87B
:1037A000104004BF01F0004100207047BDE8104008
:1037B00070B500F095FA00BF64FBBE3E0000E0FF6C
:1037C000491058BFC1F140415B1058BFC3F140439D
:1037D0008B42EFF3008070472DE9C04130B4DFF831
:1037E000A0C23CEA111418BF3CEA131400F0EC80AC
:1037F00081EA03051CEA111444EAD57418BF1CEAD7
:10380000131500F0C780A4EB05044FF0004545EA0E
:10381000C12145EAC32341EA505143EA525304F11E
:103820007F74994204F500344FEAC0204FEAC22267
:1038300008BF904200F09C804FEA13650FF24016DB
:10384000765D4FEA134506FB05F7C7F1807706FB67
:1038500007F74FEAD737A7FB03687642C8F58038E9
:10386000A7FB06CE38BFA8F1010807FB08E64FF01A
:10387000000EA6FB028CE6FB03CEDCF1000CCEF1C1
:10388000004E38BFAEF1010EA6FB0C584FF00007FA
:103890004FF00005E6FB0E87A1FB08C6A0FB07CE94
:1038A00016EB0E0645F10005E1FB076515F1E04E4C
:1038B0007EBFA4F580345FEA46066D4116F18007AD
:1038C00045F100054FEA17274FEA066647EA056704
:1038D000A6F1DE46B6F1805F4FEA15251FD93846BE
:1038E00024F0010C05EBC471BCF1FE6F01EB0C116F
:1038F00002D8F0BCBDE8008124425CBF01F5801E07
:103900009EEAC47F02D4F0BCBDE80081244238D4D2
:10391000F0BCA1F1C041BDE8004100F02FBA4FEA70
:10392000D22242EA43524FEAD323A7FB02864FEA50
:10393000D02040EA415007FB03661EEA0E0F4FEA13
:10394000D12105FB026658BFA6EB0056B6EB005628
:103950004FEA520E4EEAC37E18EB0E0E56EB530E94
:10396000BDD518EB02085E417F1C55F10005B6E796
:103970004FF480154FF000074FF000064FF000089D
:10398000ADE7F0BC4FF0000001F1C04101F0004193
:10399000BDE8008111EA0C1F0CEA131500D00CE001
:1039A00013EA0C1F00F025804FF00000F0BC81EA04
:1039B000030101F00041BDE80081F0BCBDE8004119
:1039C00081EA030100F0DAB9F0BCBDE8004170B54E
:1039D00000F086F9097EFC3E00F007B881EA030199
:1039E0004FF0000001F00041704781EA030100F050
:1039F000C5B9F0BCBDE800414FF000002149704757
:103A0000FFFDFBF9F7F5F4F2F0EEEDEBE9E8E6E4A3
:103A1000E3E1E0DEDDDBDAD8D7D5D4D3D1D0CFCD2A
:103A2000CCCBCAC8C7C6C5C4C2C1C0BFBEBDBCBB63
:103A3000BAB9B8B7B6B5B4B3B2B1B0AFAEADACAB5E
:103A4000AAA9A8A8A7A6A5A4A3A3A2A1A09F9F9E38
:103A50009D9C9C9B9A9999989797969595949393EA
:103A6000929191908F8F8E8E8D8C8C8B8B8A898981
:103A70008888878786858584848383828281818004
:103A80000000FF070000F87F4FEA41034FEA53535D
:103A9000A3F58063D3F11E03C8BFD3F1210C0CDD65
:103AA0004FF0004242EAC12242EA505232FA03FC8D
:103AB0008CEAE17CACEBE1707047102BC4BF0020B6
:103AC000704703F5787CBCF1FF3F04D06FF00042F3
:103AD00082EA2100704770B500F002F94992248013
:103AE00000207047F2E710F0004248BF4042B0FAB1
:103AF00080F310FA03F10AD0C3F11D0303F58063CC
:103B00004FEA415002EB035202EBD12170474FF0D4
:103B10000000704751EA030C17D41CF5801F58BFF2
:103B2000BCF5801F00F10680994218BF704708BF9E
:103B30009042704707D711F5801F58BF13F5801FBB
:103B400019D499427047894270471CF5801F08D5E7
:103B5000BCF5801FF7D58B4218BF704708BF824263
:103B600070474FF4001C1CEB410F38BF1CEB430F98
:103B700001D28B42704770B500F0B2F89224490030
:103B80004FF000514FF08053FFF71ABEDFF848C1E5
:103B900070B51CEA111E1EBF1CEA13159EEA0C0F1D
:103BA00095EA0C0F00F06F8081EA030423EA4C13BE
:103BB0004EEAD47E21EA4C1141F4801143F4801383
:103BC000AE44A1FB024CA0FB0365AEF17F7E36192B
:103BD00055EB0C05A1FB034C4CF10003A0FB021CB0
:103BE00016EB0C06654153F10003094218BF46F07D
:103BF000010613F4007F0BD14FEA03314FEA053081
:103C0000340341EA155140EA16506FF003020AE00E
:103C10004FEAC3214FEAC520F40241EA555140EA78
:103C200056506FF0020202EB2E4201EB025585EA7C
:103C3000CE710AD05FEA440C18BF24F0004450F162
:103C4000000041F1000120EAD47040F2FE7C6245A0
:103C500000D270BDA84214BF4FF080444FF04044E2
:103C6000002E08BF0024BEF1806FA8BFA1F1C041A3
:103C7000BDE8704080F282804FF0000001F1C04149
:103C800001F0004170479EEA0C0F0CEA131518BFB3
:103C900095EA0C0F06D04FF0000081EA030E0EF0FB
:103CA000004170BD00F01CF88900013E00F007B82B
:103CB00000F009B84FEA430C5FEA5C5C08D081EA87
:103CC000030100F05BB84FEA410C5FEA5C5CF6D19F
:103CD0004FF00000014970470000FF070000F87F27
:103CE0000EF1020E2EF0030E5EF8046B364205D480
:103CF000012A43EB030515F5001F12D8012841EBFB
:103D0000010C1CF5001F0CD80ED14FEAD17C15F523
:103D1000001F0CEB4C0C0CF1020C08BF4CEBD37CDD
:103D200004E04FF0080C01E04FEAD37C0CEB4C05AB
:103D300026FA05F606F00706B6F1040C06D20EEBDD
:103D4000860CBDE870404CF0010C6047DFE80CF0D9
:103D5000090B02024FF000414FF00000A1F50021D5
:103D600070BD19461046012851EB010418BFD4F567
:103D7000001484BF002001F0004170BD0808A0F5C8
:103D800000114FEA3101704753EA010C17D41CF5BA
:103D9000801F58BFBCF5801F00F106808B4218BF02
:103DA000704708BF8242704707D713F5801F58BF7E
:103DB00011F5801F19D48B4270479B4270471CF548
:103DC000801F08D5BCF5801FF7D5994218BF7047F2
:103DD00008BF904270474FF4001C1CEB430F38BFE4
:103DE0001CEB410F01D2994270470FB40CBC03BCCD
:103DF000FFF7C1BE10B591EA030F48BF83F000433F
:103E00003FF53EAC841A71EB030C07D212198CF00B
:103E1000004C43EB0C03001B61EB0C01DFF8A4E149
:103E20004FEA1154A4EB135C1EEA430F18BF9EEA3D
:103E3000445F00F0B08023EA6E03524221EA04514D
:103E4000C3EB6E0338BF5B1EDCF1200E25D322FAD4
:103E50000CFE10EB0E0043FA0CFE41EB0E01CCF110
:103E6000200E03FA0EFE10EB0E0051F10001CCF112
:103E7000200E29D412FA0EF201EB0451BDE81040D5
:103E800058BF7047401C1CBFB2F1004F704700285C
:103E90000CBF491C20F00100704712EB020E43EBEF
:103EA000030218BF4FF0010E4EEA4202ACF1200CA3
:103EB000DCF11E0E54D943FA0CFE10EB0E0051F14A
:103EC000FF31CCF11E0ED5D50EF1010E12FA0EFE09
:103ED000404141EB010101EB445C5FEA5C5C10D9BD
:103EE00010EBDE7001EB045138BFBEF1004FBDE8AE
:103EF000104018BF704700280CBF491C20F001007B
:103F0000704730D24FEAD42C11F5001124F400642C
:103F10001BD0B1FA81F20B3AA41AA41ED2F12003ED
:103F2000914030FA03F31943904001EBCC71002C1F
:103F300001EB0451BDE81040A8BF704701F1C0413A
:103F40004FF0000001F000417047B0FA80F310FA22
:103F500003F100D110BDE41A173C4805C90AE4E793
:103F600001EB045110BD491001EB0451BDE81040B4
:103F70004FEA300002E04FF0000170474A0008BFEE
:103F80000042F8D0B2F5001F28BF704701F0004191
:103F90004FF0000070479EEA445F07D011EA5E0FC1
:103FA000BDE8104004BF002100207047BDE810406C
:103FB00070B5FFF795FE00BF40DFF63E83F000418D
:103FC000104670470000E0FF43004FEAD30C4FEA71
:103FD0003C0C43401FBF40070CF1605113F0FE4FF3
:103FE00070471CF0006F03D100200CF000417047B7
:103FF0000CF0004343EA507010B540EACC0000F0EA
:104000000EF800BF000000924FEA0001FFF7B6BEB5
:104010004FF000414FF00000A1F5002170470EF174
:10402000020E2EF0030E5EF8044B244204D44FEA35
:104030004102B2F17F4F11D84FEA4003B3F17F4FF5
:104040000CD80ED14FEAD07CB2F17F4F0CEB4C0C68
:104050000CF1020C08BF4CEBD17C04E04FF0080CD3
:1040600001E04FEAD17C0CEB4C0324FA03F404F09A
:104070000704B4F1040C06D20EEB840CBDE810402A
:104080004CF0010C6047DFE80CF0070802024FF02B
:104090000040A0F5800010BD0846420018BFD2F1D4
:1040A000807288BF00F0004010BD4FF04070E1EE1C
:1040B000100A7047FF2141EAD050C0057047000048
:1040C00000000000000001020304060708090000C8
:1040D0000000010203040000FC4000080000002072
:1040E0002C000000C4010008284100082C0000201A
:1040F00034090000E001000861F3FFFF0000000048
:1041000000000000000000000000000000000000AF
:10411000000000000000000000000000100000008F
:08412000010000000024F4007E
:040000050800018965
:00000001FF
