:020000040800F2
:10000000D80700202D0200081D1900085917000804
:100010001919000847040008DD1A00080000000054
:10002000000000000000000000000000231900088C
:100030004B040008000000002119000825190008E1
:10004000470200084702000847020008470200086C
:1000500047020008470200084D0400084702000854
:10006000470200084702000847020008470200084C
:10007000470200084702000847020008470200083C
:10008000470200084702000847020008470200082C
:10009000470200084702000847020008470200081C
:1000A000470200084702000847020008470200080C
:1000B00047020008411900084702000847020008EB
:1000C00047020008470200084702000847020008EC
:1000D00047020008470200084702000847020008DC
:1000E00047020008470200084702000847020008CC
:1000F00047020008470200084702000847020008BC
:1001000047020008470200084702000847020008AB
:10011000470200084702000847020008470200089B
:10012000470200084702000847020008470200088B
:10013000470200084702000847020008470200087B
:10014000470200084702000847020008470200086B
:10015000470200084702000847020008470200085B
:10016000470200084702000847020008470200084B
:10017000470200084702000847020008000000008C
:10018000470200084702000800F002F800F03EF8BD
:100190000AA090E8000C82448344AAF10107DA45E2
:1001A00001D100F033F8AFF2090EBAE80F0013F0F6
:1001B000010F18BFFB1A43F001031847E81E0000A7
:1001C000081F0000103A24BF78C878C1FAD8520737
:1001D00024BF30C830C144BF04680C6070470000C1
:1001E0000023002400250026103A28BF78C1FBD840
:1001F000520728BF30C148BF0B6070471FB501F0E0
:1002000040FF00F0D5F81FBD10B510BD00F0E2F8BA
:100210001146FFF7F3FF01F0DDFE00F000F903B433
:10022000FFF7F2FF03BC00F007F900000948804720
:1002300009480047FEE7FEE7FEE7FEE7FEE7FEE7C8
:10024000FEE7FEE7FEE7FEE704480549054A064BE0
:10025000704700002D19000889010008D80100200E
:10026000D8070020D8030020D803002053EA020C4E
:1002700000F069802DE9F04B4FF00006002B1FBF06
:10028000B3FA83F503FA05F424FA05F65E4012BFCB
:100290001643B2FA82F502FA05F4C5F120051EBF35
:1002A00022FA05FC44EA0C04203556EA044C4FEAD5
:1002B000144418BF641C4FF000084FF0000990422E
:1002C00071EB030C39D3002919BFB1FA81F701FA98
:1002D00007F6B0FA80F700FA07F6C7F120071EBF4D
:1002E00020FA07FC46EA0C062037B6FBF4FCA7EB25
:1002F0000507103F07F01F0BCBF120060CFA0BFB94
:100300002CFA06F644BFB3460026202FA4BF5E4653
:100310004FF0000B5BEA060C08BF4FF0010B19EB26
:100320000B09ABFB027C48EB0608C01B06FB02CCAA
:100330000BFB03CC71EB0C01C1E70B4602464146B7
:100340004846BDE8F08B13B54FF000004FF00001B8
:10035000AFF30080BDE81C4070474FF0000200B5CD
:10036000134694469646203922BFA0E80C50A0E8D8
:100370000C50B1F12001BFF4F7AF090728BFA0E886
:100380000C5048BF0CC05DF804EB890028BF40F852
:10039000042B08BF704748BF20F8022B11F0804F94
:1003A00018BF00F8012B7047704770477047000076
:1003B00070B5064C7C44064D7D4403E02068204423
:1003C0008047241DAC42F9D170BD00000C1D000017
:1003D0000C1D0000754600F02BF8AE46050069467E
:1003E000534620F00700854618B020B5FFF72CFFD4
:1003F000BDE820404FF000064FF000074FF0000826
:100400004FF0000B21F00701AC46ACE8C009ACE8A6
:10041000C009ACE8C009ACE8C0098D46704710B50A
:100420000446AFF300802046BDE81040FFF7F7BE5A
:10043000004870477801002001491820ABBEFEE754
:1004400026000200704700BFFEE7704710B501208C
:1004500000F02AF810BD72B600BFFEE770B5044682
:1004600000F038F906462546681C10B104480078AB
:10047000054400BF00F02EF9801BA842FAD370BDDE
:100480000800002010B50446012C05D108220449BB
:10049000044801F037FD00E000BF00BF10BD0000C0
:1004A000000802401000002010B50446044800680F
:1004B000204020B1024804602046FFF7E3FF10BD52
:1004C000143C0140F8B502460B46002500240020EC
:1004D0000021D6E0012606FA01F51E6806EA0504A9
:1004E000AC4274D11E7906F00306012E04D01E79A9
:1004F00006F00306022E13D190684F000326BE407B
:10050000B0434F00DE68BE40304390605068012623
:100510008E40B0431E79C6F300168E4030435060C3
:100520001E7906F00306032E09D0D0684F0003267B
:10053000BE40B0434F009E68BE403043D0601E793D
:1005400006F00306022E13D1CF0802F1200656F85A
:1005500027004E07F70E0F26BE40B0434F07FF0E91
:100560001E69BE403043CF0802F1200646F827003E
:1005700010684F000326BE40B0431E7906F0030604
:100580004F00BE40304310605E6806F44036002ED7
:1005900076D000BF002600963C4E366846F4804672
:1005A0003A4F3E603E46366806F48046009600BFED
:1005B00000BF374E8F0856F827008E07370F0F26DB
:1005C000BE40B043334EB24202D1002624E057E091
:1005D000314EB24201D101261EE0304EB24201D16D
:1005E000022619E02E4EB24201D1032614E02D4E10
:1005F000B24201D104260FE02B4EB24201D10526B2
:100600000AE02A4EB24201D1062605E0284EB24247
:1006100001D1072600E008268F073F0FBE40304378
:100620001B4E8F0846F82700224E3068A0435E68B4
:1006300006F4801606B120431E4E3060361D306829
:10064000A0435E6806F4001606B12043194E361D1D
:100650003060184E361F3068A0435E6806F40036DE
:1006600006B12043134E361F3060361F3068A0435A
:100670005E6806F4803606B120430E4E083E3060B8
:10068000491C1029FFF426AFF8BD00004438024091
:100690000838014000000240000402400008024007
:1006A000000C0240001002400014024000180240FA
:1006B000001C0240083C0140024613690B400BB18C
:1006C000012000E0002070470AB1816101E00B04C5
:1006D00083617047014800687047000000000020F7
:1006E00003480068034909780844014908607047D5
:1006F000000000200800002010B50D48006840F4FC
:1007000000700B4908600846006840F4806008608B
:100710000846006840F480700860032000F0A2F8EA
:100720000F2000F007F800F02BF8002010BD0000AB
:10073000003C024070B504460E4800784FF47A71D0
:10074000B1FBF0F00C490968B1FBF0F5284600F068
:1007500005FC08B1012070BD102C07D200222146F3
:10076000501E00F041F80548046001E00120F2E766
:100770000020F0E7080000200C000020040000200A
:1007800008B500BF002000900E48006840F480408B
:100790000C4908600846006800F48040009000BFE3
:1007A00000BF00BF00200090081F006840F080508C
:1007B000091F08600846006800F08050009000BFE4
:1007C00000BF08BD4438024001460846002809DB46
:1007D00000F01F0301229A4043099B0003F1E0232C
:1007E000C3F8002100BF70472DE9F05F80460D4639
:1007F0001646002701F0E4FA074639462A463346F2
:1008000001F00700C0F1070ABAF1040F02D94FF056
:10081000040A01E0C0F1070AD14600F1040ABAF166
:10082000070F02D24FF0000A01E0A0F1030AD446FC
:100830004FF0010A0AFA09FAAAF1010A0AEA020AC1
:100840000AFA0CFA4FF0010B0BFA0CFBABF1010B9F
:100850000BEA030B4AEA0B042146404601F09CFADE
:10086000BDE8F09F00BF00F00702064B19684FF685
:10087000FF031940044B0B4343EA0221014B19606B
:1008800000BF70470CED00E00000FA0570B50446AB
:100890000D460CB9012070BD5848006800F00700F3
:1008A000A84209D255490D700846006800F00700BB
:1008B000A84201D00120EEE7207800F002000228D3
:1008C0001DD1207800F00400042805D14C480068B0
:1008D00040F4E0504A490860207800F008000828F9
:1008E00005D14748006840F46040454908604448E5
:1008F000006820F0F000A1680843414908602078B2
:1009000000F00100A8B36068012807D13C4808380E
:100910000068C0F34040B8B90120BCE76068022815
:1009200002D06068032807D1354808380068C0F352
:10093000406048B90120AEE7314808380068C0F38C
:10094000400008B90120A6E72D48006820F0030008
:10095000616808432A490860FFF7BCFE064609E0C3
:10096000FFF7B8FE801B41F28831884202D903208C
:1009700091E707E02248006800F00C006168B0EBE6
:10098000810FEDD11D48006800F00700A84209D989
:100990001A490D700846006800F00700A84201D00F
:1009A000012078E7207800F00400042807D11448DB
:1009B000006820F4E050E16808431149086020789D
:1009C00000F00800082808D10D48006820F46040B5
:1009D000216940EAC1000A49086000F019F8084995
:1009E0000968C1F30311074A515CC8400649086011
:1009F00006480068FFF79EFE00204CE7003C0240DE
:100A0000083802408C2000080C0000200400002060
:100A10002DE9F047002400250026A146254800685E
:100A200000F00C0020B1042805D008283AD105E0D8
:100A3000DFF8849039E0DFF8849036E01D48001F2D
:100A4000006800F03F041B48001F006800F48000AD
:100A500078B11A481749091F0968C1F38811A0FB2A
:100A600001700146224600233846FFF7FFFB05468A
:100A70000EE011480F49091F0968C1F38811A0FB56
:100A800001700146224600233846FFF7EFFB05467A
:100A90000848001F0068C0F30140401C4600B5FB39
:100AA000F6F902E0DFF8109000BF00BF4846BDE84D
:100AB000F0870000083802400024F40000127A0099
:100AC000F8B504460CB90120F8BD207800F001000B
:100AD000002874D0F948006800F00C0004280DD0FC
:100AE000F648006800F00C00082813D1F348001FF6
:100AF000006800F48000B0F5800F0BD1EF48083893
:100B00000068C0F34040002859D06068002856D1E2
:100B10000120D9E700BF6068B0F5803F08D1E74801
:100B20000838006840F48030E449083908601EE065
:100B30006068B0F5A02F0DD1E0480838006840F497
:100B40008020DE49083908600846006840F480309B
:100B500008600CE0D9480838006820F48030D74994
:100B6000083908600846006820F48020086000BF4B
:100B7000606890B1FFF7AEFD054606E0FFF7AAFDFD
:100B8000401B642801D903209EE7CC480838006840
:100B9000C0F340400028F1D011E0FFF79BFD05466F
:100BA00006E0FFF797FD401B642801D903208BE77F
:100BB000C24808380068C0F340400028F1D12078CE
:100BC00000F0020002285FD1BC48006800F00C0071
:100BD00058B1BA48006800F00C0008281CD1B7488A
:100BE000001F006800F48000B0B9B44808380068FD
:100BF000C0F3400020B1E068012801D0012063E784
:100C0000AE480838006820F0F800216940EAC100C9
:100C1000AA490839086037E0E06800B30120A84914
:100C20000860FFF757FD054606E0FFF753FD401B40
:100C3000022801D9032047E7A04808380068C0F31C
:100C400040000028F1D09D480838006820F0F800E6
:100C5000216940EAC10099490839086014E0002080
:100C600097490860FFF736FD054606E0FFF732FDBD
:100C7000401B022801D9032026E790480838006865
:100C8000C0F340000028F1D1207800F008000828C7
:100C90002CD16069A8B101208A490860FFF71AFDCC
:100CA000054606E0FFF716FD401B022801D9032088
:100CB0000AE782486C300068C0F340000028F1D099
:100CC00014E000207F490860FFF704FD054606E0B8
:100CD000FFF700FD401B022801D90320F4E6774806
:100CE0006C300068C0F340000028F1D1207800F09B
:100CF0000400042870D1002770483830006800F0E4
:100D0000805090B900BF002000906C4838300068D7
:100D100040F080506949383108600846006800F0AA
:100D20008050009000BF00BF01276748006800F4B2
:100D30008070B0B96448006840F48070624908600F
:100D4000FFF7C8FC054606E0FFF7C4FC401B02287D
:100D500001D90320B8E65C48006800F480700028E0
:100D6000F2D000BFA068012808D15448683000685C
:100D700040F001005149683108601DE0A068052875
:100D80000DD14E486830006840F004004B4968318E
:100D900008600846006840F0010008600CE0474821
:100DA0006830006820F00100444968310860084656
:100DB000006820F00400086000BFA068A8B1FFF739
:100DC00089FC054609E0FFF785FC401B41F28831AC
:100DD000884202D9032077E626E038486830006868
:100DE000C0F340000028EED013E0FFF773FC054687
:100DF00008E0FFF76FFC401B41F28831884201D9BF
:100E0000032061E62D4868300068C0F340000028E8
:100E1000EFD1012F07D129483830006820F08050E9
:100E200026493831086000BFA069002845D0234812
:100E3000006800F00C0008285DD0A069022845D1A8
:100E400000201F490866FFF745FC054606E0FFF74E
:100E500041FC401B022801D9032035E61748083819
:100E60000068C0F340600028F1D1D4E907010843CD
:100E7000616A40EA81110122A06AC2EB500041EA96
:100E800000412C20005D41EA00600C49091F086008
:100E900001200B490866FFF71DFC054606E0FFF739
:100EA00019FC401B022801D903200DE6034808382D
:100EB0000068C0F340600028F1D049E008380240E3
:100EC00000004742800E4742007000400020214948
:100ED0000866FFF7FFFB054606E0FFF7FBFB401B3C
:100EE000022801D90320EFE51B480068C0F34060E9
:100EF0000028F2D12CE0A069012800D1E4E51648D1
:100F0000001D0668A069012820D006F48001E06970
:100F100081421BD106F03F01206A814216D147F67B
:100F2000C0703040616AB0EB811F0FD106F44031D0
:100F30000122A06AC2EB5000B1EB004F06D106F0CF
:100F400070612C20005DB1EB006F01D00120BBE58A
:100F50000020B9E5000047420038024070B5044661
:100F60002546681EB0F1807F01D301200FE0681E86
:100F70004FF0E02148610F214FF0FF3000F00CFFEF
:100F800000204FF0E021886107200861002070BD3B
:100F90007047704730B502460B4600BF92F83C00E0
:100FA000012801D1022030BD012082F83C0000BFA1
:100FB000022082F83D00106844681068816824F0BF
:100FC00070041868044310684460184D1068A84203
:100FD0001BD01068B0F1804F17D0154D1068A84293
:100FE00013D0144D1068A8420FD0134D1068A842BA
:100FF0000BD0124D1068A84207D0114D1068A842BE
:1010000003D0104D1068A84205D121F08001586826
:10101000014310688160012082F83D0000BF00207C
:1010200082F83C0000BF00BFBDE7000000000140A7
:101030000004004000080040000C00400004014093
:10104000004001400018004010B504460CB90120D2
:1010500010BD94F83D0028B9002084F83C002046DB
:1010600000F026F8022084F83D00211D206800F0E1
:101070006FFC012084F8460000BF84F83E00012187
:101080003F200155402001554120015500BF00BFC0
:10109000012084F842004320015544200155452099
:1010A000015500BF012084F83D000020D0E700007A
:1010B00038B504460E492068884217D100BF002089
:1010C00000900C48006840F002000A490860084699
:1010D000006800F00200009000BF00BF002211462F
:1010E0001D20FFF781FB1D20FFF76EFB38BD0000C0
:1010F0000004004040380240014691F83D000128BC
:1011000001D001207047022081F83D000868C068C6
:1011100040F001000B68D8601A4B086898421BD059
:101120000868B0F1804F17D0174B0868984213D069
:10113000164B086898420FD0154B086898420BD0A0
:10114000144B0868984207D0134B0868984203D0A4
:10115000124B086898420CD10868806800F00702BA
:10116000062A0CD00868006840F001000B6818607F
:1011700005E00868006840F001000B681860002076
:10118000C0E70000000001400004004000080040EB
:10119000000C0040000401400040014000180040E5
:1011A0002DE9F04104460D46002700BF94F83C00AD
:1011B000012802D10220BDE8F081012084F83C0022
:1011C00000BF022084F83D002068866826F077067C
:1011D00026F47F46206886602868502833D00CDCCF
:1011E000202850D004DC00284BD0102851D149E0F1
:1011F000302849D040284CD139E060282DD07028C3
:1012000007D0B0F5805F03D0B0F5005F41D10DE0AD
:1012100041E0D5E902136A68206800F016FC2068F6
:10122000866846F077062068866034E0D5E90213C8
:101230006A68206800F009FC2068806840F48040FB
:101240002168886027E0EA686968206800F07DFD11
:101250005021206800F070FD1DE0EA686968206890
:1012600000F086FD6021206800F066FD13E0EA686A
:101270006968206800F069FD4021206800F05CFD8D
:1012800009E000BF00BF00BF2968206800F054FDDE
:1012900001E0012700BF00BF012084F83D0000BF2E
:1012A000002084F83C0000BF384684E7704710B542
:1012B000044620680069C0F34000D8B12068C068C7
:1012C000C0F34000B0B16FF0020021680861012056
:1012D00020772068806900F0030018B12046FFF7EE
:1012E000E5FF05E0204600F0DDF8204600F0AAF911
:1012F0000020207720680069C0F38000D8B1206802
:10130000C068C0F38000B0B16FF0040021680861CC
:10131000022020772068806900F4407018B12046D0
:10132000FFF7C4FF05E0204600F0BCF8204600F0BF
:1013300089F90020207720680069C0F3C000D8B187
:101340002068C068C0F3C000B0B16FF00800216829
:101350000861042020772068C06900F0030018B1FC
:101360002046FFF7A3FF05E0204600F09BF820464B
:1013700000F068F90020207720680069C0F30010B1
:10138000D8B12068C068C0F30010B0B16FF0100091
:1013900021680861082020772068C06900F4407047
:1013A00018B12046FFF782FF05E0204600F07AF8EA
:1013B000204600F047F9002020772068006900F0FF
:1013C000010058B12068C06800F0010030B16FF032
:1013D000010021680861204600F0BCF9206800691E
:1013E000C0F3C01058B12068C068C0F3C01030B15D
:1013F0006FF08000216808612046FFF7C9FD206872
:101400000069C0F3801058B12068C068C0F3801034
:1014100030B16FF0400021680861204600F09BF970
:1014200020680069C0F3401058B12068C068C0F35C
:10143000401030B16FF02000216808612046FFF7AE
:10144000A8FD10BD10B586B00446142101A8FEF712
:1014500084FF1149206888421BD100BF0020009002
:101460000E48006840F001000C490860084600681A
:1014700000F00100009000BF00BF02200190029028
:101480000020039004900220059001A90448FFF772
:1014900019F806B010BD0000000C004030380240C2
:1014A0000000024070472DE9F04104460D46164603
:1014B000002700BF94F83C00012802D10220BDE8BB
:1014C000F081012084F83C0000BF36B1042E1BD00F
:1014D000082E31D00C2E5ED145E02946206800F060
:1014E0008DFB2068806940F00800216888612068D1
:1014F000806920F00400216888612068806929697A
:1015000008432168886148E02946206800F0A8FA6D
:101510002068806940F400602168886120688069E3
:1015200020F480602168886120688069296940EA28
:1015300001202168886130E02946206800F096FB90
:101540002068C06940F008002168C8612068C0694F
:1015500020F004002168C8612068C0692969084337
:101560002168C86119E02946206800F0BBFB2068AB
:10157000C06940F400602168C8612068C06920F437
:1015800080602168C8612068C069296940EA01203B
:101590002168C86101E0012700BF00BF00BF002033
:1015A00084F83C0000BF384689E710B504460CB902
:1015B000012010BD94F83D0028B9002084F83C00BB
:1015C000204600F025F8022084F83D00211D206807
:1015D00000F0BEF9012084F8460000BF84F83E0008
:1015E00001213F200155402001554120015500BFF8
:1015F00000BF012084F842004320015544200155DA
:101600004520015500BF012084F83D000020D0E7AF
:1016100008B50A4A016891420FD100BF002100912C
:101620000749096841F00801054A11601146096837
:1016300001F00801009100BF00BF08BD000C004090
:10164000403802407047000070B504460D4615B999
:1016500094F83E000BE0042D02D13F20005D06E02F
:10166000082D02D14020005D01E04120005D0128ED
:1016700001D0012070BD1DB9022084F83E000EE0AB
:10168000042D03D102213F20015508E0082D03D18C
:1016900002214020015502E0022141200155012292
:1016A0002946206800F0C0F923492068884203D009
:1016B00022492068884201D1012000E0002028B1A1
:1016C0002068406C40F40040216848641A49206852
:1016D00088421BD02068B0F1804F17D0184920688D
:1016E000884213D01749206888420FD016492068D5
:1016F00088420BD011492068884207D013492068DE
:10170000884203D01249206888420CD12068806842
:1017100000F00706062E0CD02068006840F001009B
:101720002168086005E02068006840F00100216839
:10173000086000209EE70000000001400004014016
:101740000004004000080040000C00400040014040
:10175000001800407047704700BFFEE700B587B033
:10176000142102A8FEF7F9FD00BF002001902D48CA
:10177000006840F080002B4908600846006800F0CF
:101780008000019000BF00BF00BF0020019008460C
:10179000006840F0040008600846006800F004009B
:1017A000019000BF00BF00BF002001900846006804
:1017B00040F0010008600846006800F00100019058
:1017C00000BF00BF002206211748FEF77DFF012061
:1017D00002904FF4881003900220049002A912484E
:1017E000FEF770FE06200290012003900020049076
:1017F000059002A90C48FEF765FE08200290002023
:1018000003900120049002A90748FEF75BFE002226
:1018100011460620FEF7E8FF0620FEF7D5FF07B0C9
:1018200000BD0000303802400008024000B587B01B
:1018300000200390049005900690019002901548B6
:101840001549086040F2E730486000211248816085
:1018500040F2E731C1600021016180218161FFF721
:10186000F3FB08B1FEF7F7FD4FF48050039003A996
:101870000948FFF795FC08B1FEF7EDFD0020019047
:10188000029001A90448FFF785FB08B1FEF7E3FDCC
:1018900007B000BD00040040E800002000B589B09A
:1018A0000020079008901C216846FEF756FD184856
:1018B000184908600020486000211648816047F6FA
:1018C000FF71C160002101618161FFF76EFE08B107
:1018D000FEF7C1FD00200790089007A90D48FFF70B
:1018E00059FB08B1FEF7B7FD602000900020019081
:1018F00002900490042269460648FFF7D4FD08B11F
:10190000FEF7A9FD0348FFF79DFD09B000BD0000EB
:10191000000C00403001002000BFFEE700BFFEE7E2
:101920007047704710B5FEF7DBFE10BD0348006836
:1019300040F47000014908607047000088ED00E045
:1019400010B50248FFF7B3FC10BD0000E80000200E
:1019500010B50268294B98420ED0B0F1804F0BD0E1
:10196000274B984208D0274B984205D0264B9842E7
:1019700002D0264B984203D122F070024B681A43E2
:101980001E4B984220D0B0F1804F1DD01C4B984286
:101990001AD01C4B984217D01B4B984214D01B4BAB
:1019A000984211D01A4B98420ED01A4B98420BD045
:1019B000194B984208D0194B984205D0184B9842C1
:1019C00002D0184B984203D122F44072CB681A43DC
:1019D00022F080034C6943EA040202608B68C36210
:1019E0000B688362054B984202D0084B984201D1A4
:1019F0000B6903630123436110BD00000000014037
:101A00000004004000080040000C004000040140B9
:101A100000400140004401400048014000180040DF
:101A2000001C00400020004030B501F01F050124DB
:101A300004FA05F3046A9C430462046A01F01F057A
:101A400002FA05F52C43046230BD30B50C468168BE
:101A500021F47F4142EA032525432943816030BDBB
:101A600030B5056A25F010050562026A436884698D
:101A700024F4E04424F440740D6844EA052422F080
:101A800020028D6842EA0512124DA84200D103E0FF
:101A9000114DA84207D100BF22F08002CD6842EA72
:101AA000051222F040020B4DA84202D00A4DA84276
:101AB00009D123F4806323F400634D6943EA85036D
:101AC0008D6943EA8503436084614D6885630262E2
:101AD00030BD0000000001400004014000BFFEE7EF
:101AE00000B593B0302107A8FEF737FC142102A8F7
:101AF000FEF733FC00BF002001902448006840F04E
:101B00008050224908600846006800F0805001902B
:101B100000BF00BF00BF002001901D48006840F4D6
:101B200080401B4908600846006800F4804001902E
:101B300000BF00BF012007900004089002200D9014
:101B400041050E9104210F91A821109102211191BC
:101B50000421129107A8FEF7B3FF08B1FEF77BFC42
:101B60000F20029002200390002004904FF4A05018
:101B700005904FF480500690052102A8FEF786FEDE
:101B800008B1FEF768FC13B000BD00004038024009
:101B9000007000400346501A00EE100AB8EEC00A6A
:101BA00083ED030A93ED040AD3ED030A30EE200A15
:101BB00083ED040A93ED000AD3ED030A20EE200A18
:101BC000D3ED010A93ED041A00EE810AD3ED030A66
:101BD00093ED051A70EEC10A93ED021A01EE200A88
:101BE00083ED060A93ED030A83ED050A93ED060AD9
:101BF000BDEEC00A10EE100A7047000030B5056A4D
:101C000025F001050562026A4368846924F07004C6
:101C100024F003040D682C4322F002028D682A434D
:101C2000104DA84200D103E00F4DA84206D100BFDD
:101C300022F00802CD682A4322F00402094DA8428E
:101C400002D0094DA84207D123F4807323F4007316
:101C50004D692B438D692B43436084614D68456317
:101C6000026230BD000001400004014030B5056A49
:101C700025F480750562026A4368C46924F0700423
:101C800024F003040D682C4322F400728D6842EAAC
:101C90000522124DA84200D103E0114DA84207D100
:101CA00000BF22F40062CD6842EA052222F480627D
:101CB0000A4DA84202D00A4DA84209D123F480530C
:101CC00023F400534D6943EA05138D6943EA051374
:101CD0004360C4614D68C563026230BD00000140CD
:101CE0000004014030B5056A25F480550562036A99
:101CF0004468C26922F4E04222F440720D6842EA6C
:101D0000052223F400538D6843EA0533084DA842A9
:101D100002D0084DA84204D124F480444D6944EA1D
:101D200085144460C2614D680564036230BD0000E3
:101D300000000140000401400A46816821F0700162
:101D400042F0070319438160704730B50B461446D3
:101D5000026A056A25F001050562816921F0F0013A
:101D600041EA041122F00A021A438161026230BD85
:101D700030B50B461446056A25F0100505628169E9
:101D8000026A21F4704141EA043122F0A00242EAE1
:101D900003128161026230BD10B5002804DB0A071E
:101DA000130E054A135406E00A07140E034A00F006
:101DB0000F031B1FD45410BD00E400E018ED00E039
:101DC00002480068C0F30220704700000CED00E0FC
:101DD00070B506460D464DB9002202211C48FEF79B
:101DE00073FC002202211A48FEF76EFC002D09DD6B
:101DF000012202211648FEF767FC00220221144846
:101E0000FEF762FC002D09DA002202211048FEF7DD
:101E10005BFC012202210E48FEF756FC2A4606F121
:101E200008007168FFF7B6FE044643F69820844226
:101E300001DD044603E00748844200DA0446002C32
:101E400001DD204600E0604203490968886370BDF7
:101E50000008024068C5FFFF3001002070B504464D
:101E60000D46164601211548FEF726FC012812D121
:101E700031462846FEF720FC18B92068401C206037
:101E80001BE031462846FEF717FC012815D12068D3
:101E9000401E206011E031462846FEF70DFC18B9BF
:101EA0002068401E206008E031462846FEF704FC0A
:101EB000012802D12068401C206070BD000802404B
:101EC00000210160416070472DE9F04104460F4652
:101ED00015461E46DDF81880394604F11000FFF75C
:101EE00077FF294604F13400FFF772FF314604F111
:101EF0005800FFF76DFF414604F17C00FFF768FFD3
:101F0000BDE8F08170B504460D46164632462946B6
:101F100004F11000FFF7A2FF70BD000070B5044689
:101F20000D461646284600F095F8C4E900013046F3
:101F300000F090F8C4E9020104F11000FFF7C0FFBF
:101F4000A0F1100404F13400FFF7BAFFA0F134044B
:101F500004F15800FFF7B4FFA0F1580404F17C002D
:101F6000FFF7AEFFA0F17C0404F1A0009FED120B7F
:101F700080ED000B9FED100B80ED020B9FED0E0B23
:101F800080ED040B00BFA0F1A00404F1B8009FEDA8
:101F90000A0B80ED000B9FED080B80ED020B9FED0F
:101FA000060B80ED040B9FED040B80ED060B00BFCC
:101FB000A0F1B804204670BD000000000000000041
:101FC00010B5012211460248FFF7A8FF10BD00001E
:101FD0001000002008B5FEF78FFBFFF781FDFFF72B
:101FE000BDFBFFF75BFCFFF721FC04211548FFF761
:101FF0002BFB1548FFF780F823E042F210740BE04A
:10200000002003460246214600901048FFF75CFF7F
:102010000A20FEF723FA643C0D488442F0DC0446B3
:102020000BE0002003460246214600900748FFF7D8
:102030004BFF0A20FEF712FA643442F21070844219
:10204000EFDCDAE730010020E8000020100000207B
:10205000F0D8FFFF10F0004248BF4042B0FA80F3D2
:1020600010FA03F10AD0C3F11D0303F580634FEAB0
:10207000415002EB035202EBD12170474FF00000B8
:1020800070474FF04070E1EE100A7047000000000A
:102090000000000001020304060708090000000018
:1020A00001020304C8200008000000201000000006
:1020B000C4010008D820000810000020C807000054
:1020C000E0010008FDFEFFFF00000000100000001E
:0820D000010000000024F400EF
:040000050800018965
:00000001FF
