:020000040800F2
:100000001809002045020008C1300008592E0008D8
:10001000BD300008FF130008D133000800000000C5
:10002000000000000000000000000000C7300008D1
:100030000314000800000000C5300008C9300008A3
:100040005F0200085F0200085F0200085F0200080C
:100050005F0200085F020008051400085F02000844
:100060005F0200085F0200085F0200085F020008EC
:100070005F0200085F0200085F0200085F020008DC
:100080005F0200085F0200085F0200085F020008CC
:100090005F0200085F0200085F0200085F020008BC
:1000A0005F0200085F0200085F0200085F020008AC
:1000B000E530000885310008953100085F0200082E
:1000C0005F0200085F0200085F0200085F0200088C
:1000D0005F0200087D3300085F0200085F0200082D
:1000E0005F0200085F0200085F0200085F0200086C
:1000F0005F0200085F0200085F0200085F0200085C
:100100005F0200085F0200085F0200085F0200084B
:100110005F0200085F0200085F0200085F0200083B
:100120005F0200085F0200085F0200085F0200082B
:100130005F0200085F0200085F0200085F0200081B
:100140005F0200085F0200085F0200085F0200080B
:100150005F0200085F0200085F0200085F020008FB
:100160005F0200085F0200085F0200085F020008EB
:100170005F0200085F0200085F0200080000000044
:100180005F0200085F02000800F002F800F04BF880
:100190000AA090E8000C82448344AAF10107DA45E2
:1001A00001D100F040F8AFF2090EBAE80F0013F0E9
:1001B000010F18BFFB1A43F0010318471C4700004A
:1001C0003C470000103A24BF78C878C1FAD85207DB
:1001D00024BF30C830C144BF04680C6070470000C1
:1001E0000023002400250026103A28BF78C1FBD840
:1001F000520728BF30C148BF0B607047662904F022
:100200001383002070471FB504F009FB00F0BAFB10
:1002100004000020002103F061FFE06000F072F9AB
:100220001FBD10B510BD00F0ADFC1146FFF7EBFF90
:1002300003F086FE00F0CBFC03B4FFF7F2FF03BC33
:1002400000F00EFD0948804709480047FEE7FEE739
:10025000FEE7FEE7FEE7FEE7FEE7FEE7FEE7FEE776
:1002600004480549054A064B70470000D130000894
:100270008901000818030020180900201805002033
:100280001805002053EA020C00F069802DE9F04BBC
:100290004FF00006002B1FBFB3FA83F503FA05F4F5
:1002A00024FA05F65E4012BF1643B2FA82F502FA4E
:1002B00005F4C5F120051EBF22FA05FC44EA0C0432
:1002C000203556EA044C4FEA144418BF641C4FF022
:1002D00000084FF00009904271EB030C39D300295C
:1002E00019BFB1FA81F701FA07F6B0FA80F700FA00
:1002F00007F6C7F120071EBF20FA07FC46EA0C06E6
:100300002037B6FBF4FCA7EB0507103F07F01F0BE7
:10031000CBF120060CFA0BFB2CFA06F644BFB346D1
:100320000026202FA4BF5E464FF0000B5BEA060CB0
:1003300008BF4FF0010B19EB0B09ABFB027C48EB3C
:100340000608C01B06FB02CC0BFB03CC71EB0C01B7
:10035000C1E70B46024641464846BDE8F08B13B55F
:100360004FF000004FF00001AFF30080BDE81C40EB
:10037000704700000FB41CB5084B06AA7B446946C1
:100380000090059800F0E5FA04460020694600F068
:10039000F3FA20461CBC5DF814FB0000F9050000D0
:1003A0002DE9F0474FF0000A89460446C0F820A026
:1003B0002046E1688847002876D0252806D0D4E971
:1003C00001219047206A401C2062F1E7E168204645
:1003D00000258847C4F81CA006460027C4F818A0CA
:1003E0002A2E09D0304603F0A3FD38B304EB87086A
:1003F000303EC8F8186019E059F8041B204604EB99
:1004000087029161E1688847012F064618D1E069AB
:10041000002820DA25F020051DE0D8F8180000EBB0
:10042000800006EB40003038C8F818002046E1682C
:100430008847064603F07CFD0028EED1012F0AD044
:100440002E2E08D12046E16888477F1C0646022FE1
:1004500045F02005C4DBA069002803DA404245F0DE
:100460000105A061E80701D025F01005B6B1A6F19D
:100470004100192802D8203645F400654A46314625
:10048000204625604D46FFF7B9FE58B1012806D039
:10049000ED1D25F0070000F1080989E704E005F1EA
:1004A000040985E730468AE7206ABDE8F0874FF007
:1004B000000200B5134694469646203922BFA0E8B4
:1004C0000C50A0E80C50B1F12001BFF4F7AF0907C0
:1004D00028BFA0E80C5048BF0CC05DF804EB8900B1
:1004E00028BF40F8042B08BF704748BF20F8022BF4
:1004F00011F0804F18BF00F8012B7047704770470C
:100500007047000070B5064C7C44064D7D4403E006
:10051000206820448047241DAC42F9D170BD000002
:10052000084400000844000070472DE9FF4F0C46C6
:100530001E464FF0FF378BB0D2E90001DDF8608036
:100540000A908A46C1F30A5505B93D46002108467E
:100550004FF00000BAF1000F00F4400005DA00EBA4
:1005600080004FF4400101EA50004FEA9059B9F180
:10057000010F00DDB9460A9850EA4A000ED044F651
:100580001050A5F2FF3545432F14B8F1000F1ED0CF
:100590007542291E1EDDC9F100021CE0B8F1010FF1
:1005A0004FF0000001D0302103E0F24305E0215478
:1005B000401CB042FBDB30460022002121540B9945
:1005C000C1F80880C1E900200FB0BDE8F08FBD1B65
:1005D0006D1CDEE74A4600DA694206A800F05CFAC4
:1005E00006AB93E8070003AB83E8070050460A997F
:1005F00000F03DFB8DE80700A0F500501F3800908B
:100600000398002D0ADD42F21F014A4608440023E8
:1006100003A90390684600F0A6FD09E0A0F500508C
:100620004A461F38002303A90390684600F0B0FD36
:100630008DE807000004000C03D04FF0FF304108A4
:1006400000E01046B8F1000F03D0002200921546DA
:100650001EE0751E05D400F099F9303262556D1E0A
:10066000F9D5B3460122084302D000227F1C04E0E2
:100670002078302801D100227F1E002A099784D0DB
:100680001DE0112D07DA00F081F9303262556D1C42
:1006900050EA0102F5D1084302D00098C8B10EE03B
:1006A0000021681E05E0235C625C63542254401EF6
:1006B000491C8142F7DBAB46A81B401E0990002075
:1006C00004F80B000B98099AC0F80880C0E9002BC9
:1006D0007AE711264FF0000857E72DE9F04F8846DA
:1006E0000446D21D22F0070191B0D1E90001CDE905
:1006F0000A0103F0F3FB02460B98C00F01D02D2036
:1007000007E02068810701D52B2002E0202101EAC3
:10071000C000032A099001D0072A05DB03464146A1
:10072000204600F079F90BE12078800601D5E069D8
:1007300000E00620B8F1650F814606D0B8F1660FDB
:1007400018D0B8F1670F70D131E00020B9F1110F66
:10075000009001DB112301E009F101030AAA01A9BC
:100760000CA8FFF7E2FEDDE90C70002609F1010597
:10077000834647E001204B4600904FF000470AAA0D
:1007800001A90CA8FFF7D1FEDDE90DB00C995D467B
:10079000002610B909F101000D18B9EB050003D4CA
:1007A000C0F1FF3609F10105A5EB09002BE0B9F115
:1007B000010F01DA4FF001090020B9F1110F00908B
:1007C000484601DD112300E003460AAA01A90CA84E
:1007D000FFF7ABFEDDE90C704D460026834620781E
:1007E00000070AD4AB4500DA5D4601A8012D04DDFF
:1007F000411911F8011C302907D04F4502DA17F1D1
:10080000040F04DA012082460FE06D1EEEE7002F90
:1008100002DCED1B3E4403E0781CA84200DD7D1C99
:10082000B81B00F1010A4FF000472078000703D4FD
:10083000AA4501DB4FF0FF3A0021B7F1004F0DF15F
:1008400043088DF8431024D002202B23002F01DA17
:100850007F422D230A21021EA0F1010000DC5FB1BE
:1008600097FBF1FC97FBF1F201FB1C7C17460CF1A6
:10087000300C08F801CDEEE7A8F1010003702188E3
:10088000090501D5452100E06521A0F1010800F826
:10089000011C09980FA9A1EB0807FF1D00B1012059
:1008A000411901EBEA70A1693844081A401EA061A1
:1008B0002078C00602D42046AFF30080099828B102
:1008C000D4E901219047206A401C20622078C006AC
:1008D00022D52046AFF300801EE0002E04DBB34596
:1008E00002DD01A8805D00E03020D4E901219047BD
:1008F000206A401C2062761CAAF101005FEA000A0F
:100900000AD100F03FF8C0680168405CD4E90121D9
:100910009047206A401C2062281EA5F10105DCDCFE
:1009200007E0D4E9012118F8010B9047206A401C28
:100930002062381EA7F10107F3DC2046AFF30080E8
:10094000032011B041E6000001694A1C02610878E9
:10095000704700B58FB0CDE90131002105910549FF
:100960007944CDE9031011466846FFF719FD0FB031
:1009700000BD0000E5FFFFFF0A6802F8010B0A60F6
:100980007047000000487047D802002030B5B0F131
:100990000A024FEA900E71F100034EEA817EB0EB3D
:1009A0000E0061EB91014FEA101E4EEA017E10EB42
:1009B0000E0041EB11114FEA102E4EEA016E10EBC2
:1009C0000E0041EB11214FEA104E4EEA014E10EBA2
:1009D0000E0041EB1141401841F100014FEAD000F7
:1009E00040EA41704FEAD10110EB80054FEA8104E3
:1009F00044EA907444EB01046D1944EB0404521B67
:100A0000A3414FF0000348BF0A3200D530BD401C5F
:100A100041F1000130BD00002DE9F0411F460446C0
:100A200003260168072A01F4006004DB08B116A55B
:100A300005E016A503E008B115A500E015A521F015
:100A400010002060A069C01EA0610FB1401EA0610F
:100A50002046AFF300804FB1D4E9012138469047DA
:100A6000206A401C2062C01C206206E0206AFAE76F
:100A7000D4E9012115F8010B9047761EF8D22046E3
:100A8000AFF30080BDE8F0814E414E006E616E0014
:100A9000494E4600696E66002DE9F04781461646CC
:100AA0008AB0354878440DC88DE80D003248784446
:100AB000801C03AC0DC884E80D0041F69B3008444F
:100AC000372190FBF1F290FBF1F5A5F1800501FBD8
:100AD00012041B3C02D56442012000E00020DFF834
:100AE00098A080460027FA44AAF1BE0A0EE0E0076B
:100AF0000AD03246684607EB470101230AEB810121
:100B000000F046FB8DE8070064107F1C002CEED13E
:100B1000194F7F44AE3F19E0E80715D007EB0410EA
:100B20000DF1180A90E80E008AE80E00C068F04245
:100B300001D1981908903246012306A903A800F0B4
:100B400027FB03AB83E807006D10641C002DE3D185
:100B50004FF0010332466946B8F1000F03A802D0F6
:100B600000F001FB01E000F013FBC9E90001C9F846
:100B700008200AB0BDE8F087183E00000048704722
:100B8000B80200207546FFF7F9FFAE46050069463A
:100B9000534620F00700854618B020B5FFF760FBEC
:100BA000BDE820404FF000064FF000074FF000086E
:100BB0004FF0000B21F00701AC46ACE8C009ACE8EF
:100BC000C009ACE8C009ACE8C0098D46704710B553
:100BD0000446AFF300802046BDE81040FFF72CBB71
:100BE0004FF0013C50F8042B51F8043B9A4221D1BC
:100BF000A2EB0C03934313EACC1317D150F8042B48
:100C000051F8043B9A4215D1A2EB0C03934313EA2B
:100C1000CC130BD150F8042B51F8043B9A4209D164
:100C2000A2EB0C03934313EACC13DBD04FF000008C
:100C3000704700BFD01A01BAB1FA81F101F0180172
:100C400022FA01F0CB40C1F12001DBB2C0B2C01AE0
:100C50002CFA01F3D11A914311EAC311E6D170477E
:100C600001491820ABBEFEE72600020070475FEA8C
:100C7000400C08BF91F0000F4FEA8C234FEAC122CD
:100C800043EA51514FEA1C5018BF00F5F0404FEABB
:100C9000300018BF41F000415FEA6C5C00F0298031
:100CA000BCF1FF3F08BF40F080407047130C06BF07
:100CB00012044FF0100C4FF0000C130E04BF120280
:100CC0000CF1080C130F04BF12010CF1040C930F6C
:100CD00004BF92000CF1020CD30F04BF52000CF1C0
:100CE000010C11464FF00002A0F11F00A0EB0C0018
:100CF000704711F0004F08BF704731F000413FF4DA
:100D0000D5AF0B0C06BF09044FF0100C4FF0000CD0
:100D10000B0E04BF09020CF1080C0B0F04BF0901F4
:100D20000CF1040C8B0F04BF89000CF1020CCB0FEB
:100D300004BF49000CF1010CCCF12003A0EB0C0026
:100D400022FA03F302FA0CF241EA030100F1010076
:100D5000704720F07F4C80EA030023F07F47ACEB24
:100D6000070303F57C5300F0004003F1FF032DE976
:100D700080494FEA154B09B44FEA144325EA0B4E5C
:100D800024EA03480FF2042606EB132749083E78AD
:100D90005FEA320203FB0667C7F5000707FB06F6AA
:100DA0004FEA54374FEAD64606F1020607FB066CB7
:100DB000CCF1005C4FEA1C472CEA074C07FB06F419
:100DC0000CFB06F504EB15464FEA961634BF0020DF
:100DD0004FF000404FEAD13706FB07FC4FEA1C4CAE
:100DE0000CFB0BF7D21B03FB0CF761EB07010CFBB1
:100DF0000EF7B0EB074072EB17420CFB08F734BF5D
:100E0000A2EB0742B2EB074261EB17414FEA0C44F9
:100E10004FEA910706FB07FC4FEA1C4C0CFB0BF753
:100E2000B0EBC74072EB573203FB0CF734BFA2EBB9
:100E3000C742B2EBC74261EB57310CFB0EF7B0EB88
:100E4000C70072EB57720CFB08F734BFA2EBC70266
:100E5000B2EBC70261EB5771039F4FEA816141EA30
:100E6000921104EBCC044FEAD1374FEA826206FBC1
:100E700007FC42EA90124FEA80604FEA1C4C0CFBE0
:100E80000BF7D21B03FB0CF761EB07010CFB0EF712
:100E9000B0EB074072EB17420CFB08F734BFA2EB34
:100EA0000742B2EB074261EB17414FEA8C554FEA1C
:100EB000910704EB9C2406FB07FC4FEA1C4C0CFB3F
:100EC0000BF7B0EBC74072EB573203FB0CF734BFA4
:100ED000A2EBC742B2EBC74261EB57310CFB0EF7F6
:100EE000B0EBC70072EB57720CFB08F734BFA2EBF4
:100EF000C702B2EBC70261EB577115EB4C254FEA05
:100F0000816141EA92114FEA82624FEAD13742EAA7
:100F1000901206FB07FC44F100044FEA80604FEAA0
:100F20001C4C0CFB0BF7D21B03FB0CF761EB07010E
:100F30000CFB0EF7B0EB074072EB17420CFB08F707
:100F400034BFA2EB0742B2EB074261EB174115EB4E
:100F50001C154FEA813141EA92414FEA823242EA5E
:100F600090424FEA80304FEA0C7644F1000448EAA0
:100F700003434EEA0B484FF0000EB2EB080C71EB46
:100F8000030724BF624639464EEB0E0E4FF0000BAE
:100F90000018524149414BEB0B0BB2EB080C71EBC3
:100FA00003077BF1000B24BF624639464EEB0E0E61
:100FB0004FF0000B0018524149414BEB0B0BB2EBC9
:100FC000080C71EB03077BF1000B24BF6246394626
:100FD0004EEB0E0E51EA020718BF46F0010616EB63
:100FE0000E7655F1000254F1000103D5BDE88901E8
:100FF000BDE80088BDE88901BDE80048B619524146
:1010000041EB0101A3F10103704780807F7E7D7C6D
:101010007B7A7978777676757473727171706F6E8A
:101020006E6D6C6C6B6A6A69686867666665646435
:10103000636362616160605F5F5E5E5D5D5C5C5BBF
:101040005B5A5A595958585757565655555554542E
:10105000535352525251515050504F4F4F4E4E4D8C
:101060004D4D4C4C4C4B4B4B4A4A4A4949494848D8
:101070004847474747464646454545444444444318
:1010800043434342424242414141002B9C4630D4BB
:1010900077002BD01CB54FEA370703B44FF0100090
:1010A0004FF01001BAF1000F06D0BCF1000FDCBF09
:1010B00040F0080040F008014FF000000FBCBDE810
:1010C00010400BF1010BBBF1010F08BF5FEA1707DE
:1010D00022BF12F1010211F101014FF0004143F171
:1010E000000300F0004043EA00007047F9D35708BE
:1010F000D0E746EA064613F1400F4FEA16461FDDD9
:1011000013F1200FDFBF16430A46002120335B4254
:10111000BED0C3F1200746EA064602FA07F74FEAB7
:10112000164646EA0706C3F1200722FA03F201FA3F
:1011300007F721FA03F14FF0000342EA0702A7E79D
:1011400046EA020646EA06464FEA164646EA01061F
:10115000BCBF46EA0646360C4FF000034FF00002D3
:101160004FF0000194E72DE9804C9A46934670B405
:1011700091E8380007C831EA400C48BF34EA430C14
:1011800003D5FFF7E6FDFFF780FFF0BCBDE8008C5C
:101190002DE9804C9A46934670B491E8380007C810
:1011A00010F0804F08BF13F0804F03D100F005F816
:1011B000FFF76BFFF0BCBDE8008C20F07F4780EAB2
:1011C000030023F07F4C07EB0C03A3F57C5300F0E6
:1011D0000040A3F1FE0392F0000F00F0B38095F001
:1011E000000F00F077802DE901494FEA11404FEAE6
:1011F000144621EA004800FB06FC24EA064708FBE7
:1012000006F607FB08F800FB07F718EB06484CEB5F
:10121000164C4FEA124B18EB07484FEA15464CEBB9
:10122000174022EA0B4E0BFB06FC25EA06470EFB95
:1012300006F607FB0EFE0BFB07F71EEB064E4CEB0C
:10124000164C4FF000061EEB074E4CEB174B18EBFD
:101250000B0840F1000018EB0E0B58EB000840F1B2
:1012600000008F1A4FF000013CBFC943661B14BF3A
:10127000B5EB040C00213CBFC943F61B4FEA1744F1
:101280004EEA8E0E27EA04454FEA1C4704FB07622C
:101290002CEA074C05FB07F70CFB05F604FB0CFCDE
:1012A00016EB074642EB174216EB0C4642EB1C428C
:1012B0001BEB060658EB0202414146EA9E0601D5A9
:1012C000BDE80189B619524141EB0101A3F10103C7
:1012D000BDE801894FEA14454FEA114724EA054663
:1012E00021EA074C05FB07F406FB07F70CFB06F1A8
:1012F00005FB0CFC11EB074144EB17444FEA124786
:1013000011EB0C4144EB1C4422EA074C05FB07F2AD
:1013100006FB07F70CFB06F605FB0CFC16EB074675
:1013200042EB174216EB0C4642EB1C456A1854F18F
:10133000000148BF7047B619524141EB0101A3F1CA
:101340000103704795F0000F37D04FEA11424FEA82
:10135000144721EA024624EA074C02FB07F106FB88
:1013600007F70CFB06F402FB0CFC14EB074441EB03
:1013700017414FEA154714EB0C4441EB1C4125EA99
:10138000074C02FB07F506FB07F70CFB06F602FB12
:101390000CFC16EB074645EB174516EB0C4645EBE8
:1013A0001C42121951F1000148BF7047B619524151
:1013B00041EB0101A3F1010370474FEA14454FEAE5
:1013C000114724EA054621EA074C05FB07F106FB15
:1013D00007F70CFB06F24FF0000605FB0CFC12EBC6
:1013E000074241EB174112EB0C4251EB1C4148BF45
:1013F0007047921841EB0101A3F10103704700BF50
:10140000FEE7704710B5012000F080F810BD72B6FD
:1014100000BFFEE770B50446A56D00F085F90646ED
:1014200094F83500022808D08020606500BF0020B5
:1014300084F8340000BF012070BD2068006820F0EF
:101440001600216808602068406920F0800021684B
:101450004861206C08B9A06C28B12068006820F0B1
:101460000800216808602068006820F001002168F9
:10147000086010E000F058F9801B05280BD92020E7
:101480006065032084F8350000BF002084F8340034
:1014900000BF0320D0E72068006800F001000028AA
:1014A000E8D194F85C103F208840A860012084F8BF
:1014B000350000BF002084F8340000BF00BFBBE748
:1014C000014691F83500022803D0802048650120AC
:1014D0007047052081F835000868006820F0010099
:1014E0000A6810600020F3E710B50446012C05D10E
:1014F00008220449044802F093FC00E000BF00BF4A
:1015000010BD0000000802403000002010B5044665
:1015100004480068204020B1024804602046FFF7DC
:10152000E3FF10BD143C0140F8B502460B46002510
:10153000002400200021D6E0012606FA01F51E68ED
:1015400006EA0504AC4274D11E7906F00306012EAA
:1015500004D01E7906F00306022E13D190684F00C6
:101560000326BE40B0434F00DE68BE40304390606B
:10157000506801268E40B0431E79C6F300168E4097
:10158000304350601E7906F00306032E09D0D06860
:101590004F000326BE40B0434F009E68BE4030431C
:1015A000D0601E7906F00306022E13D1CF0802F197
:1015B000200656F827004E07F70E0F26BE40B04310
:1015C0004F07FF0E1E69BE403043CF0802F12006D0
:1015D00046F8270010684F000326BE40B0431E792E
:1015E00006F003064F00BE40304310605E6806F40C
:1015F0004036002E76D000BF002600963C4E36685E
:1016000046F480463A4F3E603E46366806F48046D1
:10161000009600BF00BF374E8F0856F827008E0790
:10162000370F0F26BE40B043334EB24202D10026E0
:1016300024E057E0314EB24201D101261EE0304E87
:10164000B24201D1022619E02E4EB24201D1032648
:1016500014E02D4EB24201D104260FE02B4EB242CF
:1016600001D105260AE02A4EB24201D1062605E044
:10167000284EB24201D1072600E008268F073F0F0F
:10168000BE4030431B4E8F0846F82700224E30687C
:10169000A0435E6806F4801606B120431E4E3060FB
:1016A000361D3068A0435E6806F4001606B120437C
:1016B000194E361D3060184E361F3068A0435E68E4
:1016C00006F4003606B12043134E361F3060361F35
:1016D0003068A0435E6806F4803606B120430E4EA3
:1016E000083E3060491C1029FFF426AFF8BD000009
:1016F0004438024008380140000002400004024023
:1017000000080240000C0240001002400014024099
:1017100000180240001C0240083C01400AB18161EF
:1017200001E00B04836170470148006870470000C6
:101730001C00002003480068034909780844014957
:10174000086070471C0000202400002010B50D48E0
:10175000006840F400700B4908600846006840F4D7
:10176000806008600846006840F4807008600320CC
:1017700000F0A2F80F2000F007F800F02BF800208E
:1017800010BD0000003C024070B504460E480078D1
:101790004FF47A71B1FBF0F00C490968B1FBF0F538
:1017A000284600F02BFC08B1012070BD102C07D298
:1017B00000222146501E00F041F80548046001E077
:1017C0000120F2E70020F0E724000020280000209C
:1017D0002000002008B500BF002000900E480068DF
:1017E00040F480400C4908600846006800F48040DE
:1017F000009000BF00BF00BF00200090081F0068DD
:1018000040F08050091F08600846006800F08050D2
:10181000009000BF00BF08BD4438024001460846A2
:10182000002809DB00F01F0301229A4043099B00B6
:1018300003F1E023C3F8002100BF70472DE9F05FFA
:1018400080460D461646002702F004FA0746394640
:101850002A46334601F00700C0F1070ABAF1040F27
:1018600002D94FF0040A01E0C0F1070AD14600F1A5
:10187000040ABAF1070F02D24FF0000A01E0A0F10A
:10188000030AD4464FF0010A0AFA09FAAAF1010A3A
:101890000AEA020A0AFA0CFA4FF0010B0BFA0CFBE7
:1018A000ABF1010B0BEA030B4AEA0B04214640465D
:1018B00002F0BCF9BDE8F09F00BF00F00702064B44
:1018C00019684FF6FF031940044B0B4343EA02210A
:1018D000014B196000BF70470CED00E00000FA05F5
:1018E00070B504460D460CB9012070BD584800681B
:1018F00000F00700A84209D255490D70084600685B
:1019000000F00700A84201D00120EEE7207800F0A7
:10191000020002281DD1207800F00400042805D11F
:101920004C48006840F4E0504A490860207800F0D4
:101930000800082805D14748006840F46040454940
:1019400008604448006820F0F000A168084341495D
:101950000860207800F00100A8B36068012807D172
:101960003C4808380068C0F34040B8B90120BCE7E3
:101970006068022802D06068032807D1354808381B
:101980000068C0F3406048B90120AEE7314808382C
:101990000068C0F3400008B90120A6E72D480068A0
:1019A00020F00300616808432A490860FFF7BCFE85
:1019B000064609E0FFF7B8FE801B41F288318842F5
:1019C00002D9032091E707E02248006800F00C00EC
:1019D0006168B0EB810FEDD11D48006800F0070091
:1019E000A84209D91A490D700846006800F007009E
:1019F000A84201D0012078E7207800F004000428F4
:101A000007D11448006820F4E050E1680843114908
:101A10000860207800F00800082808D10D48006808
:101A200020F46040216940EAC1000A49086000F0E2
:101A30003FF808490968C1F30311074A515CC840DF
:101A40000649086006480068FFF79EFE00204CE744
:101A5000003C0240083802402C48000828000020C2
:101A60002000002001480068704700002800002086
:101A700000B5FFF7F7FF04490968C1F38221034A63
:101A8000515CC84000BD0000083802403C480008D6
:101A900000B5FFF7E7FF04490968C1F34231034A83
:101AA000515CC84000BD0000083802403C480008B6
:101AB0002DE9F047002400250026A14625480068AE
:101AC00000F00C0020B1042805D008283AD105E028
:101AD000DFF8849039E0DFF8849036E01D48001F7D
:101AE000006800F03F041B48001F006800F48000FD
:101AF00078B11A481749091F0968C1F38811A0FB7A
:101B000001700146224600233846FEF7BBFB05461E
:101B10000EE011480F49091F0968C1F38811A0FBA5
:101B200001700146224600233846FEF7ABFB05460E
:101B30000848001F0068C0F30140401C4600B5FB88
:101B4000F6F902E0DFF8109000BF00BF4846BDE89C
:101B5000F0870000083802400024F40000127A00E8
:101B6000F8B504460CB90120F8BD207800F001005A
:101B7000002874D0F948006800F00C0004280DD04B
:101B8000F648006800F00C00082813D1F348001F45
:101B9000006800F48000B0F5800F0BD1EF480838E2
:101BA0000068C0F34040002859D06068002856D132
:101BB0000120D9E700BF6068B0F5803F08D1E74851
:101BC0000838006840F48030E449083908601EE0B5
:101BD0006068B0F5A02F0DD1E0480838006840F4E7
:101BE0008020DE49083908600846006840F48030EB
:101BF00008600CE0D9480838006820F48030D749E4
:101C0000083908600846006820F48020086000BF9A
:101C1000606890B1FFF788FD054606E0FFF784FD98
:101C2000401B642801D903209EE7CC48083800688F
:101C3000C0F340400028F1D011E0FFF775FD0546E4
:101C400006E0FFF771FD401B642801D903208BE7F4
:101C5000C24808380068C0F340400028F1D120781D
:101C600000F0020002285FD1BC48006800F00C00C0
:101C700058B1BA48006800F00C0008281CD1B748D9
:101C8000001F006800F48000B0B9B448083800684C
:101C9000C0F3400020B1E068012801D0012063E7D3
:101CA000AE480838006820F0F800216940EAC10019
:101CB000AA490839086037E0E06800B30120A84964
:101CC0000860FFF731FD054606E0FFF72DFD401BDC
:101CD000022801D9032047E7A04808380068C0F36C
:101CE00040000028F1D09D480838006820F0F80036
:101CF000216940EAC10099490839086014E00020D0
:101D000097490860FFF710FD054606E0FFF70CFD58
:101D1000401B022801D9032026E7904808380068B4
:101D2000C0F340000028F1D1207800F00800082816
:101D30002CD16069A8B101208A490860FFF7F4FC42
:101D4000054606E0FFF7F0FC401B022801D90320FE
:101D50000AE782486C300068C0F340000028F1D0E8
:101D600014E000207F490860FFF7DEFC054606E02E
:101D7000FFF7DAFC401B022801D90320F4E677487C
:101D80006C300068C0F340000028F1D1207800F0EA
:101D90000400042870D1002770483830006800F033
:101DA000805090B900BF002000906C483830006827
:101DB00040F080506949383108600846006800F0FA
:101DC0008050009000BF00BF01276748006800F402
:101DD0008070B0B96448006840F48070624908605F
:101DE000FFF7A2FC054606E0FFF79EFC401B022819
:101DF00001D90320B8E65C48006800F48070002830
:101E0000F2D000BFA068012808D1544868300068AB
:101E100040F001005149683108601DE0A0680528C4
:101E20000DD14E486830006840F004004B496831DD
:101E300008600846006840F0010008600CE0474870
:101E40006830006820F001004449683108600846A5
:101E5000006820F00400086000BFA068A8B1FFF788
:101E600063FC054609E0FFF75FFC401B41F2883147
:101E7000884202D9032077E626E0384868300068B7
:101E8000C0F340000028EED013E0FFF74DFC0546FC
:101E900008E0FFF749FC401B41F28831884201D934
:101EA000032061E62D4868300068C0F34000002838
:101EB000EFD1012F07D129483830006820F0805039
:101EC00026493831086000BFA069002845D0234862
:101ED000006800F00C0008285DD0A069022845D1F8
:101EE00000201F490866FFF71FFC054606E0FFF7C4
:101EF0001BFC401B022801D9032035E6174808388F
:101F00000068C0F340600028F1D1D4E9070108431C
:101F1000616A40EA81110122A06AC2EB500041EAE5
:101F200000412C20005D41EA00600C49091F086057
:101F300001200B490866FFF7F7FB054606E0FFF7AF
:101F4000F3FB401B022801D903200DE603480838A3
:101F50000068C0F340600028F1D049E00838024032
:101F600000004742800E4742007000400020214997
:101F70000866FFF7D9FB054606E0FFF7D5FB401BD7
:101F8000022801D90320EFE51B480068C0F3406038
:101F90000028F2D12CE0A069012800D1E4E5164820
:101FA000001D0668A069012820D006F48001E069C0
:101FB00081421BD106F03F01206A814216D147F6CB
:101FC000C0703040616AB0EB811F0FD106F4403120
:101FD0000122A06AC2EB5000B1EB004F06D106F01F
:101FE00070612C20005DB1EB006F01D00120BBE5DA
:101FF0000020B9E5000047420038024070B50446B1
:102000002546681EB0F1807F01D301200FE0681ED5
:102010004FF0E02148610F214FF0FF3001F006FE44
:1020200000204FF0E021886107200861002070BD8A
:102030007047704730B502460B4600BF92F83C002F
:10204000012801D1022030BD012082F83C0000BFF0
:10205000022082F83D00106844681068816824F00E
:1020600070041868044310684460184D1068A84252
:102070001BD01068B0F1804F17D0154D1068A842E2
:1020800013D0144D1068A8420FD0134D1068A84209
:102090000BD0124D1068A84207D0114D1068A8420D
:1020A00003D0104D1068A84205D121F08001586876
:1020B000014310688160012082F83D0000BF0020CC
:1020C00082F83C0000BF00BFBDE7000000000140F7
:1020D0000004004000080040000C004000040140E3
:1020E000004001400018004010B504460CB9012022
:1020F00010BD94F83D0028B9002084F83C0020462B
:1021000000F026F8022084F83D00211D206801F02F
:1021100049F8012084F8460000BF84F83E00012100
:102120003F200155402001554120015500BF00BF0F
:10213000012084F8420043200155442001554520E8
:10214000015500BF012084F83D000020D0E70000C9
:1021500038B504462068B0F1804F18D100BF002088
:1021600000902848006840F00100264908600846B1
:10217000006800F00100009000BF00BF002211467F
:102180001C20FFF75BFB1C20FFF748FB38E01E49D3
:102190002068884218D100BF0020009019480068CC
:1021A00040F00200174908600846006800F002008D
:1021B000009000BF00BF002211461D20FFF73EFB2C
:1021C0001D20FFF72BFB1BE010492068884217D128
:1021D00000BF002000900B48006840F0040009494F
:1021E00008600846006800F00400009000BF00BFCF
:1021F000002211461E20FFF721FB1E20FFF70EFBD9
:1022000038BD000040380240000400400008004093
:10221000014691F83D00012801D0012070470220BD
:1022200081F83D000868C06840F001000B68D86084
:102230001A4B086898421BD00868B0F1804F17D03D
:10224000174B0868984213D0164B086898420FD075
:10225000154B086898420BD0144B0868984207D079
:10226000134B0868984203D0124B086898420CD16F
:102270000868806800F00702062A0CD00868006829
:1022800040F001000B68186005E00868006840F045
:1022900001000B6818600020C0E70000000001404A
:1022A0000004004000080040000C00400004014011
:1022B00000400140001800402DE9F04104460D4661
:1022C000002700BF94F83C00012802D10220BDE89D
:1022D000F081012084F83C0000BF022084F83D001A
:1022E0002068866826F0770626F47F462068866098
:1022F0002868502833D00CDC202850D004DC00287B
:102300004BD0102851D149E0302849D040284CD139
:1023100039E060282DD0702807D0B0F5805F03D059
:10232000B0F5005F41D10DE041E0D5E902136A68E4
:10233000206800F0B4FF2068866846F077062068C1
:10234000866034E0D5E902136A68206800F0A7FFD0
:102350002068806840F480402168886027E0EA684F
:102360006968206801F0D1F95021206801F0C4F9B2
:102370001DE0EA686968206801F0DAF960212068E8
:1023800001F0BAF913E0EA686968206801F0BDF964
:102390004021206801F0B0F909E000BF00BF00BF94
:1023A0002968206801F0A8F901E0012700BF00BFFB
:1023B000012084F83D0000BF002084F83C0000BFED
:1023C000384684E7704710B5044620680069C0F3BA
:1023D0004000D8B12068C068C0F34000B0B16FF0D1
:1023E000020021680861012020772068806900F0E0
:1023F000030018B12046FFF7E5FF05E0204600F096
:10240000DDF8204600F0AAF9002020772068006956
:10241000C0F38000D8B12068C068C0F38000B0B1BC
:102420006FF004002168086102202077206880692D
:1024300000F4407018B12046FFF7C4FF05E02046C5
:1024400000F0BCF8204600F089F9002020772068D1
:102450000069C0F3C000D8B12068C068C0F3C000F4
:10246000B0B16FF00800216808610420207720686F
:10247000C06900F0030018B12046FFF7A3FF05E094
:10248000204600F09BF8204600F068F900202077F5
:1024900020680069C0F30010D8B12068C068C0F39C
:1024A0000010B0B16FF0100021680861082020779B
:1024B0002068C06900F4407018B12046FFF782FF21
:1024C00005E0204600F07AF8204600F047F90020A9
:1024D00020772068006900F0010058B12068C068CA
:1024E00000F0010030B16FF0010021680861204662
:1024F00000F0BCF920680069C0F3C01058B1206832
:10250000C068C0F3C01030B16FF08000216808616E
:102510002046FFF78DFD20680069C0F3801058B198
:102520002068C068C0F3801030B16FF040002168AF
:102530000861204600F09BF920680069C0F3401054
:1025400058B12068C068C0F3401030B16FF020006F
:10255000216808612046FFF76CFD10BD10B586B0FC
:102560000446142101A8FDF7A2FF11492068884202
:102570001BD100BF002000900E48006840F0010011
:102580000C4908600846006800F00100009000BF98
:1025900000BF0220019002900020039004900220CE
:1025A000059001A90448FEF7BFFF06B010BD00006A
:1025B000000C0040303802400000024070472DE916
:1025C000F04104460D461646002700BF94F83C0033
:1025D000012802D10220BDE8F081012084F83C00EE
:1025E00000BF36B1042E1BD0082E31D00C2E5ED188
:1025F00045E02946206800F0E1FF2068806940F04E
:102600000800216888612068806920F00400216842
:10261000886120688069296908432168886148E0E9
:102620002946206800F046FE2068806940F400607A
:10263000216888612068806920F480602168886151
:1026400020688069296940EA01202168886130E0BA
:102650002946206800F0EAFF2068C06940F00800C1
:102660002168C8612068C06920F004002168C86141
:102670002068C069296908432168C86119E02946B2
:10268000206801F00FF82068C06940F400602168FC
:10269000C8612068C06920F480602168C861206832
:1026A000C069296940EA01202168C86101E0012769
:1026B00000BF00BF00BF002084F83C0000BF3846C8
:1026C00089E710B504460CB9012010BD94F83D000F
:1026D00028B9002084F83C00204600F025F80220AC
:1026E00084F83D00211D206800F05CFD012084F885
:1026F000460000BF84F83E0001213F2001554020E4
:1027000001554120015500BF00BF012084F842005F
:1027100043200155442001554520015500BF0120AB
:1027200084F83D000020D0E708B50A4A01689142CC
:102730000FD100BF002100910749096841F008014D
:10274000054A11601146096801F00801009100BFB7
:1027500000BF08BD000C0040403802407047000038
:1027600070B504460D4615B994F83E000BE0042DF3
:1027700002D13F20005D06E0082D02D14020005D1F
:1027800001E04120005D012801D0012070BD1DB98C
:10279000022084F83E000EE0042D03D102213F20E8
:1027A000015508E0082D03D102214020015502E027
:1027B00002214120015501222946206800F05EFDDA
:1027C00023492068884203D022492068884201D1E9
:1027D000012000E0002028B12068406C40F4004057
:1027E000216848641A49206888421BD02068B0F1EB
:1027F000804F17D018492068884213D017492068A5
:1028000088420FD01649206888420BD011492068B1
:10281000884207D013492068884203D012492068B3
:1028200088420CD12068806800F00706062E0CD084
:102830002068006840F001002168086005E0206819
:10284000006840F001002168086000209EE7000059
:102850000000014000040140000400400008004066
:10286000000C0040004001400018004070477047D5
:102870007047704710B5044600BF00BF21680C3197
:1028800051E8001F21F4907021680C3141E80002EA
:10289000002AF3D100BF00BF00BF2168143151E806
:1028A000001F21F001002168143141E80002002AD4
:1028B000F3D100BF206B01280ED100BF00BF2168FB
:1028C0000C3151E8001F21F0100021680C3141E863
:1028D0000002002AF3D100BF2068406900F04000E8
:1028E000402826D100BF00BF2168143151E8001FE5
:1028F00021F040002168143141E80002002AF3D1A0
:1029000000BFA06B50B11148A16B0865A06BFEF72A
:10291000D7FDC0B1A06B016D884714E00020E085B1
:10292000202084F83E00002020632046FFF7A1FF0E
:1029300009E00020E085202084F83E00002020638C
:102940002046FFF796FF002010BD00007D3B0008E9
:10295000704700002DE9F84F04462068056820689C
:10296000C668206847694FF00009CA4605F00F099C
:10297000B9F1000F0AD105F0200038B106F02000AF
:1029800020B1204600F0FEFFBDE8F88FB9F1000F3E
:102990007CD007F0010018B906F49070002875D0BB
:1029A00005F0010030B106F4807018B1206C40F0E1
:1029B0000100206405F0040030B107F0010018B1F7
:1029C000206C40F00200206405F0020030B107F0F6
:1029D000010018B1206C40F00400206405F00800EC
:1029E00048B106F0200010B907F0010018B1206CC2
:1029F00040F008002064206C002846D005F020003C
:102A000028B106F0200010B1204600F0BBFF20687E
:102A10004069C0F3801A206C00F0080010B9BAF1C8
:102A2000000F2DD0204601F059F82068406900F0D1
:102A30004000402820D100BF00BF2168143151E878
:102A4000001F21F040002168143141E80002002AF3
:102A5000F3D100BFA06B50B17548A16B0865A06BA6
:102A6000FEF72EFD88B1A06B016D88470DE0204672
:102A7000FFF76EFF09E009E02046FFF769FF04E079
:102A80002046FFF765FF002020647DE7206B0128CA
:102A900076D105F01000002872D006F01000002852
:102AA000FAD000BF002000902068006800902068E5
:102AB0004068009000BF00BF2068406900F04000FF
:102AC00040285ED1A06B006840681FFA80F8B8F11A
:102AD000000F54D0A08D404551DDA4F82E80A06B8E
:102AE000C069B0F5807F43D000BF00BF21680C31C2
:102AF00051E8001F21F4807021680C3141E8000288
:102B0000002AF3D100BF00BF00BF2168143151E893
:102B1000001F21F001002168143141E80002002A61
:102B2000F3D100BF00BF00BF2168143151E8001F7E
:102B300021F040002168143141E80002002AF3D15D
:102B400000BF202084F83E000020206300BF00BFAB
:102B500021680C3151E8001F21F0100021680C3170
:102B600041E80002002AF3D100BFA06BFEF752FC3F
:102B7000A08DE28D801A81B22046FFF779FE03E72F
:102B800040E0A08DE18D401A1FFA80F8E08DC0B3BF
:102B9000B8F1000F35D000BF00BF21680C3151E8FB
:102BA000001F21F4907021680C3141E80002002AD6
:102BB000F3D100BF00BF00BF2168143151E8001FEE
:102BC00021F001002168143141E80002002AF3D10C
:102BD00000BF202084F83E000020206300BF00BF1B
:102BE00021680C3151E8001F21F0100021680C31E0
:102BF00041E80002002AF3D100BF41462046FFF71A
:102C000037FEC1E605F0800030B106F0800018B153
:102C1000204600F033FFB7E605F0400030B106F083
:102C2000400018B1204600F08FFFADE600BFABE6D4
:102C3000693B000810B504460CB9012010BDA0691D
:102C400000B100E000BF94F83D0028B9002084F8EE
:102C50003C00204600F028F8242084F83D0020683D
:102C6000C06820F400502168C860204600F074FD60
:102C70002068006920F4904021680861206840695C
:102C800020F02A00216848612068C06840F40050A4
:102C90002168C86000202064202084F83D0084F86A
:102CA0003E000020CAE7000010B586B0044614219B
:102CB00001A8FDF7FCFB1F492068884238D100BFFE
:102CC000002000901C48006840F010001A4908607D
:102CD0000846006800F01000009000BF00BF00BF71
:102CE0000020009014481438006840F00100124998
:102CF000143908600846006800F00100009000BF29
:102D000000BF4FF4C06001900220029000200390A9
:102D1000032004900720059001A90848FEF704FC51
:102D2000002211462520FEF789FD2520FEF776FDBD
:102D300006B010BD001001404438024000000240BF
:102D400070B504460D46164694F83E00202816D16C
:102D500005B10EB9012070BD00BF94F83C000128F8
:102D600001D10220F7E7012084F83C0000BF0020D9
:102D7000206332462946204600F0DAFAEBE70220CB
:102D8000E9E770472DE9F84F04460E461746994685
:102D90004FF0000A94F83D0020285AD106B117B927
:102DA0000120BDE8F88F00BF94F83C00012801D154
:102DB0000220F6E7012084F83C0000BF00202064D8
:102DC000212084F83D00FEF7AFFC8246A784E7840B
:102DD000A068B0F5805F04D1206910B90025B04625
:102DE00002E035464FF0000800BF002084F83C00A8
:102DF00000BF1BE05346002280212046CDF8009002
:102E000000F0CAFE08B10320CBE745B9B8F80000CE
:102E1000C0F308002168486008F1020803E0287840
:102E2000216848606D1CE08C401EE084E08C002826
:102E3000E0D15346002240212046CDF8009000F01A
:102E4000ABFE08B10320ACE7202084F83D00002051
:102E5000A7E70220A5E7704700BFFEE700B587B0EF
:102E6000142102A8FDF723FB00BF002001902D488C
:102E7000006840F080002B4908600846006800F0B8
:102E80008000019000BF00BF00BF002001900846F5
:102E9000006840F0040008600846006800F0040084
:102EA000019000BF00BF00BF0020019008460068ED
:102EB00040F0010008600846006800F00100019041
:102EC00000BF00BF002206211748FEF727FC0120A3
:102ED00002904FF4881003900220049002A9124837
:102EE000FEF722FB062002900120039000200490B0
:102EF000059002A90C48FEF717FB0820029000205D
:102F000003900120049002A90748FEF70DFB002260
:102F100011460620FEF792FC0620FEF77FFC07B064
:102F200000BD0000303802400008024000B587B004
:102F300000200390049005900690019002904FF0BD
:102F400080401449086040F2E73048600021114891
:102F500081605121C160002101618161FFF7C4F8E6
:102F600008B1FEF754FA4FF48050039003A90948C2
:102F7000FFF7A2F908B1FEF74AFA0020019002908B
:102F800001A90448FFF756F808B1FEF740FA07B068
:102F900000BD00005401002000B587B00020039060
:102FA000049005900690019002901548154908601C
:102FB00040F2E730486000211248816040F28F61A2
:102FC000C1600021016180218161FFF78DF808B1A6
:102FD000FEF71DFA4FF48050039003A90948FFF74C
:102FE0006BF908B1FEF713FA00200190029001A9D5
:102FF0000448FFF71FF808B1FEF709FA07B000BD53
:10300000000400409C01002000B589B0002007901A
:1030100008901C216846FDF74AFA184818490860CC
:103020000020486000211648816047F6FF71C160AA
:10303000002101618161FFF744FB08B1FEF7E7F968
:1030400000200790089007A90D48FEF7F3FF08B18C
:10305000FEF7DDF9602000900020019002900490BE
:10306000042269460648FFF7AAFA08B1FEF7CFF92D
:103070000348FFF773FA09B000BD0000000C0040E0
:103080002C02002010B50B480B4908604FF4E130CA
:103090004860002108488160C16001610C214161E4
:1030A00000218161C161FFF7C5FD08B1FEF7AFF9ED
:1030B00010BD0000001001407402002000BFFEE7B8
:1030C00000BFFEE77047704710B5FEF733FB10BD39
:1030D0000348006840F47000014908607047000030
:1030E00088ED00E010B52448FFF76DF9234800682B
:1030F000401C2249086008460068C82190FBF1F294
:1031000001FB120010B901201D4948701B480068DE
:10311000052190FBF1F201FB120010B901201849C2
:103120004870164800680A2190FBF1F201FB12007A
:1031300010B90120124988701048006841F28831A6
:10314000884202D101200E49C8700C48006843F63D
:103150009821884202D10120094908710748006876
:1031600047F23051884202D10020044908600248E9
:10317000FFF74EF810BD00005401002010000020A1
:103180000000002010B50248FFF71DF910BD000037
:103190009C01002010B50248FFF715F910BD000092
:1031A000E401002010B50268294B98420ED0B0F11E
:1031B000804F0BD0274B984208D0274B984205D020
:1031C000264B984202D0264B984203D122F070023F
:1031D0004B681A431E4B984220D0B0F1804F1DD04F
:1031E0001C4B98421AD01C4B984217D01B4B98424C
:1031F00014D01B4B984211D01A4B98420ED01A4B48
:1032000098420BD0194B984208D0194B984205D0E0
:10321000184B984202D0184B984203D122F44072C6
:10322000CB681A4322F080034C6943EA040202602F
:103230008B68C3620B688362054B984202D0084BCF
:10324000984201D10B6903630123436110BD000063
:10325000000001400004004000080040000C004055
:10326000000401400040014000440140004801408A
:1032700000180040001C00400020004030B501F064
:103280001F05012404FA05F3046A9C430462046ADE
:1032900001F01F0502FA05F52C43046230BD30B57C
:1032A0000C46816821F47F4142EA032525432943E6
:1032B000816030BD30B5056A25F010050562026AEF
:1032C0004368846924F4E04424F440740D6844EABB
:1032D000052422F020028D6842EA0512124DA84210
:1032E00000D103E0114DA84207D100BF22F08002B7
:1032F000CD6842EA051222F040020B4DA84202D0EE
:103300000A4DA84209D123F4806323F400634D6978
:1033100043EA85038D6943EA8503436084614D6810
:103320008563026230BD00000000014000040140DE
:1033300010B5034699629A85DA8500201864222028
:1033400083F83E0000BF002083F83C0000BF1869EE
:1033500028B11868C06840F480701C68E060186884
:10336000406940F001001C6860611868C06840F066
:1033700020001C68E060002010BD000008B5124865
:10338000FFF7E8FA10480068006800F01000102805
:1033900018D10D480068C06800F0100090B100BF5F
:1033A0000020009008480068006800900648006807
:1033B0004068009000BF00BF0348FFF75BFA0120A0
:1033C0000249087008BD00007402002000000020BF
:1033D00000BFFEE700B593B0302107A8FDF767F8FE
:1033E000142102A8FDF763F800BF002001902448D3
:1033F000006840F08050224908600846006800F0EC
:103400008050019000BF00BF00BF002001901D4808
:10341000006840F480401B4908600846006800F4DA
:103420008040019000BF00BF012007900004089079
:1034300002200D9041050E9104210F91A8211091B9
:10344000022111910421129107A8FEF789FB08B10E
:10345000FDF7DDFF0F200290022003900020049072
:103460004FF4A05005904FF480500690052102A81B
:10347000FEF736FA08B1FDF7CAFF13B000BD000031
:10348000403802400070004080ED040A70470000A0
:1034900010B52DED068B044694ED060A84ED070A5F
:1034A00094ED050A84ED060A94ED040AD4ED030AAE
:1034B00030EE600A84ED050A94ED050AB5EEC00A07
:1034C000F1EE10FA02DD94ED050A03E094ED050A31
:1034D000B1EE400AF0EE409A94ED090AB4EEE90A22
:1034E000F1EE10FA04DD94ED080ABDEC068B10BD78
:1034F00094ED050AD4ED060A30EE600AD4ED000A18
:1035000020EE208A94ED010AD4ED050A60EE208AAF
:1035100094ED050AD4ED060AB0EE001A01EE600A39
:10352000D4ED070A30EE200AD4ED020A20EE209AEC
:1035300094ED080A78EE280A70EE890A30EE200A27
:1035400084ED080A94ED080A10EE101A084601F0FE
:10355000F5F841EC1A0B9FED110B53EC102B01F019
:10356000B7F804D29FED0F0A84ED080A13E094ED3A
:10357000080A10EE101A084601F0E0F841EC1A0BA8
:103580009FED090B53EC102B00F068FF03D29FED69
:10359000080A84ED080A94ED080AA6E79A99999911
:1035A00099990D40CDCC6C409A99999999990DC0F3
:1035B000CDCC6CC080ED030A7047000030B5056AC1
:1035C00025F001050562026A4368846924F07004ED
:1035D00024F003040D682C4322F002028D682A4374
:1035E000104DA84200D103E00F4DA84206D100BF04
:1035F00022F00802CD682A4322F00402094DA842B5
:1036000002D0094DA84207D123F4807323F400733C
:103610004D692B438D692B43436084614D6845633D
:10362000026230BD000001400004014030B5056A6F
:1036300025F480750562026A4368C46924F0700449
:1036400024F003040D682C4322F400728D6842EAD2
:103650000522124DA84200D103E0114DA84207D126
:1036600000BF22F40062CD6842EA052222F48062A3
:103670000A4DA84202D00A4DA84209D123F4805332
:1036800023F400534D6943EA05138D6943EA05139A
:103690004360C4614D68C563026230BD00000140F3
:1036A0000004014030B5056A25F480550562036ABF
:1036B0004468C26922F4E04222F440720D6842EA92
:1036C000052223F400538D6843EA0533084DA842D0
:1036D00002D0084DA84204D124F480444D6944EA44
:1036E00085144460C2614D680564036230BD00000A
:1036F00000000140000401400A46816821F0700189
:1037000042F0070319438160704730B50B461446F9
:10371000026A056A25F001050562816921F0F00160
:1037200041EA041122F00A021A438161026230BDAB
:1037300030B50B461446056A25F01005056281690F
:10374000026A21F4704141EA043122F0A00242EA07
:1037500003128161026230BD2DE9F84F04462068F2
:10376000006920F44050E16808432168086121693C
:10377000A068084361690843E16908430090206834
:10378000C06849F20C618843009908432168C86009
:103790002068406920F44070A169084321684861AD
:1037A00076492068884203D075492068884203D151
:1037B000FEF76EF9814602E0FEF75AF98146E069AC
:1037C000B0F5004F6CD102206168A0FB01500346A8
:1037D0001920A9FB007001462A463846FCF752FD25
:1037E0006421B0FBF1F04FEA001A02206168A0FBEF
:1037F00001510B461920A9FB00712A463846FCF7F7
:1038000041FD834602206168A0FB01500346192058
:10381000A9FB00712A463846FCF734FD6421B0FB51
:10382000F1F000EBC00101EB0010ABEB80003221A6
:1038300001EBC0006421B0FBF1F000F0F8000AEBEE
:10384000400A02206168A0FB015003461920A9FB31
:10385000007001462A463846FCF714FD83460220D4
:103860006168A0FB015003461920A9FB00712A469C
:103870003846FCF707FD6421B0FBF1F000EBC00116
:1038800001EB0010ABEB8000322101EBC0006421A2
:10389000B0FBF1F000F007005044216888606AE056
:1038A00004206168A0FB015003461920A9FB0070A9
:1038B00001462A463846FCF7E5FC8246042061684A
:1038C000A0FB015003461920A9FB007001462A46BF
:1038D0003846FCF7D7FC6421B0FBF1F000EBC001E7
:1038E00001EB0010AAEB8000322101EB00106421F3
:1038F000B0FBF1F000F0F00A04206168A0FB017059
:1039000003461920A9FB00513A462846FCF7BAFCA9
:103910006421B0FBF1F00AEB001A04206168A0FBFF
:1039200001510B461920A9FB00712A463846FCF7C5
:10393000A9FC834604206168A0FB015003461920BE
:10394000A9FB007001462A463846FCF79BFC64211F
:10395000B0FBF1F000EBC00101EB0010ABEB80001D
:10396000322101EB00106421B0FBF1F000F00F00F8
:10397000504421688860BDE8F88F000000100140C5
:1039800000140140F8B5044694F83E00222873D193
:10399000A068B0F5805F0CD1206950B90025A66AF7
:1039A00020684068C0F308003080A06A801CA062D4
:1039B00015E0A56A0026A068B0F5805F03D0A06876
:1039C00028B9206918B920684068287004E0206888
:1039D000406800F07F002870A06A401CA062E08D63
:1039E000401E80B2E085002844D12068C06820F0E5
:1039F00020002168C8602068C06820F480702168B9
:103A0000C8602068406920F00100216848612020DA
:103A100084F83E00206B012826D10020206300BFDF
:103A200000BF21680C3151E8001F21F0100021680F
:103A30000C3141E80002002AF3D100BF2068006881
:103A400000F0100010280AD100BF0020009020686C
:103A50000068009020684068009000BF00BFA18D02
:103A60002046FEF705FF02E02046FFF78AF9002016
:103A7000F8BD01E00020FBE70220F9E7014691F8DC
:103A80003D00212828D18868B0F5805F0BD10869F6
:103A900048B90A6A1088C0F308000B685860086AC1
:103AA000801C086205E00B6A581C086218780B68D5
:103AB0005860C88C401E80B2C88458B90868C06875
:103AC00020F080000B68D8600868C06840F04000B3
:103AD0000B68D860002070470220FCE700BF00BFE1
:103AE00002680C3252E8002F22F4907102680C3206
:103AF00042E80013002BF3D100BF00BF00BF0268F3
:103B0000143252E8002F22F001010268143242E818
:103B10000013002BF3D100BF016B01290ED100BFB0
:103B200000BF02680C3252E8002F22F01001026838
:103B30000C3242E80013002BF3D100BF202180F8A3
:103B40003E1000210163704710B504462068C0682C
:103B500020F040002168C860202084F83D00204605
:103B6000FFF779F9002010BD70B50546AC6B002059
:103B7000E085E0842046FEF7EBFE70BD70B505469B
:103B8000AC6B0020E085202084F83E0000202063FC
:103B90002046FEF76EFE70BD2DE9F04104460D464D
:103BA00017469846069E34E0701C88B32EB1FDF788
:103BB000BBFDA0EB0800B0422BD900BF00BF2168BD
:103BC0000C3151E8001F21F4D07021680C3141E81C
:103BD0000002002AF3D100BF00BF00BF21681431EA
:103BE00051E8001F21F001002168143141E8000272
:103BF000002AF3D100BF202084F83D0084F83E0065
:103C000000BF002084F83C0000BF0320BDE8F08125
:103C1000FFE7206800682840A84201D1012000E0A9
:103C20000020B842C0D00020F0E7000010B5002806
:103C300004DB0A07130E054A135406E00A07140EA4
:103C4000034A00F00F031B1FD45410BD00E400E032
:103C500018ED00E002480068C0F302207047000041
:103C60000CED00E070B52DED068B0446D4ED020A94
:103C7000B0EE600A04F10C00FFF706FCD4ED010A77
:103C8000B0EE600A04F10C00FFF794FC04F10C00A4
:103C9000FFF7FEFB10EE106A304600F04FFD41ECDE
:103CA0001A0B9FED200B53EC102B00F039FA41EC6E
:103CB000190B9FED1E0B53EC102B00F00BFC41EC8D
:103CC000180B00F085FB05464DB90022022119486A
:103CD000FDF724FD002204211648FDF71FFD002DED
:103CE00009DD012202211348FDF718FD00220421FD
:103CF0001048FDF713FD002D09DA002202210D48BE
:103D0000FDF70CFD012204210A48FDF707FD002DF7
:103D100001DD284600E06842074909688863BDEC78
:103D2000068B70BD560E2DB29DEFF33F00000000D4
:103D30000088C340000802402C02002003685B1C7E
:103D40000360704700210160704780ED020A7047F0
:103D5000C8220168514301EE101AB8EE411AB0EEC4
:103D6000410A9FED041AF0EE410A80EE201A80ED20
:103D7000011A704700C058440146002008609FEDBA
:103D80001B0A81ED010A9FED190A81ED020A01F17A
:103D90000C00B6EE000A81ED030A9FED150A81EDD5
:103DA000040A9FED140A81ED050A9FED100A81EDCA
:103DB000060A9FED0E0A81ED070A9FED0C0A81EDC0
:103DC000080A9FED0A0A81ED090A9FED080A81EDB4
:103DD0000A0A9FED060A80ED080A9FED070A80EDAA
:103DE000090AA0F10C01084670470000000000001D
:103DF0000AD7A33D0AD7A33CCDCC4C3D10B5044611
:103E000004F11000FFF7A4FF04F11000FFF79AFF80
:103E100010BD10B5044604F11000FFF723FF10BDDC
:103E200070B504460D4616463246294604F1100088
:103E3000FFF784FF70BD000070B504460D461646BE
:103E4000284600F0F4FAC4E90001304600F0EFFA29
:103E5000C4E9020104F11000FFF78EFFA0F1100485
:103E600004F14400FFF788FFA0F1440404F1780056
:103E7000FFF782FFA0F1780404F1AC00FFF77CFFAC
:103E8000A0F1AC0404F1E0009FED120B80ED000BFB
:103E90009FED100B80ED020B9FED0E0B80ED040BE0
:103EA00000BFA0F1E00404F1F8009FED0A0B80EDE3
:103EB000000B9FED080B80ED020B9FED060B80EDD4
:103EC000040B9FED040B80ED060B00BFA0F1F8047E
:103ED000204670BD000000000000000003B40198FF
:103EE0004100009850EAC12018BF04204A0D18BFB5
:103EF00040F0010040F2FF72B2EB515F08BF40F0AA
:103F00000200012808BF052002B0704710B5012249
:103F100011460548FFF790FF0448002101704170E9
:103F20008170C170017110BD3000002000000020C0
:103F300030380A2801D20120704700207047000065
:103F40002DED028B84B0FDF701FCFFF743FAFEF77D
:103F500085FFFFF759F8FFF71FF8FFF793F8FEF713
:103F6000E5FF04215148FEF7FBFB5148FEF750F9ED
:103F70005048FEF74DF900BF002003904E480068FE
:103F8000006803904C4800684068039000BF00BF81
:103F900049480068C06840F0300047490968C86077
:103FA000642246494448FEF7CBFE7DE04448C07891
:103FB000012807D1B0EE0C0A4248FFF7C6FE0020E8
:103FC0003F49C8703E480079012807D1B7EE080A7A
:103FD0003C48FFF7BAFE002039490871384800789C
:103FE00090B30020384908603849086014E033482D
:103FF00036490968405C3038354908603248006805
:1040000000EB8000096801EB40002F4908602F4851
:104010000068401C2D49086028482C490968405C0C
:10402000302809DB254829490968405C392803DC28
:10403000264800680A28DAD3642220491E48FEF781
:104040007FFE00201E4908701D48407810B31D48AF
:104050001038FFF7D3FE00BF00BF1A48103890EDAC
:10406000050A00BF10EE104A204600F067FB41EC45
:10407000180B53EC182B17A101A8FCF77BF9054688
:10408000AAB2C82301A90C48FEF77CFE00200C4907
:10409000487000BF0A48807830B10A481038FFF7EE
:1040A000B8FE00200649887080E700002C0200203E
:1040B0009C010020540100207402002048010020CF
:1040C0000000002040000020080000201800002010
:1040D0000C000020252E33660A00000010B50029D0
:1040E0000AD00878002807D005487844FCF778FD06
:1040F000002801D0002010BD0248784410BD000007
:104100000E08000006080000491058BFC1F14041E8
:104110005B1058BFC3F140438B42EFF30080704700
:104120002DE9C04130B4DFF8A0C23CEA111418BF39
:104130003CEA131400F0EC8081EA03051CEA111438
:1041400044EAD57418BF1CEA131500F0C780A4EB2D
:1041500005044FF0004545EAC12145EAC32341EA81
:10416000505143EA525304F17F74994204F50034EC
:104170004FEAC0204FEAC22208BF904200F09C8064
:104180004FEA13650FF24016765D4FEA134506FBC2
:1041900005F7C7F1807706FB07F74FEAD737A7FB8C
:1041A00003687642C8F58038A7FB06CE38BFA8F171
:1041B000010807FB08E64FF0000EA6FB028CE6FBA9
:1041C00003CEDCF1000CCEF1004E38BFAEF1010E93
:1041D000A6FB0C584FF000074FF00005E6FB0E87DA
:1041E000A1FB08C6A0FB07CE16EB0E0645F10005A5
:1041F000E1FB076515F1E04E7EBFA4F580345FEA70
:1042000046066D4116F1800745F100054FEA172774
:104210004FEA066647EA0567A6F1DE46B6F1805F1B
:104220004FEA15251FD9384624F0010C05EBC4715F
:10423000BCF1FE6F01EB0C1102D8F0BCBDE80081AF
:1042400024425CBF01F5801E9EEAC47F02D4F0BC0C
:10425000BDE80081244238D4F0BCA1F1C041BDE8E2
:10426000004100F02FBA4FEAD22242EA43524FEA0D
:10427000D323A7FB02864FEAD02040EA415007FB38
:1042800003661EEA0E0F4FEAD12105FB026658BFF6
:10429000A6EB0056B6EB00564FEA520E4EEAC37E2E
:1042A00018EB0E0E56EB530EBDD518EB02085E410F
:1042B0007F1C55F10005B6E74FF480154FF000075D
:1042C0004FF000064FF00008ADE7F0BC4FF00000E3
:1042D00001F1C04101F00041BDE8008111EA0C1F6D
:1042E0000CEA131500D00CE013EA0C1F00F0258037
:1042F0004FF00000F0BC81EA030101F00041BDE88D
:104300000081F0BCBDE8004181EA030100F0DAB9A8
:10431000F0BCBDE8004170B500F086F9097EFC3EB6
:1043200000F007B881EA03014FF0000001F00041FE
:10433000704781EA030100F0C5B9F0BCBDE8004157
:104340004FF0000021497047FFFDFBF9F7F5F4F24B
:10435000F0EEEDEBE9E8E6E4E3E1E0DEDDDBDAD820
:10436000D7D5D4D3D1D0CFCDCCCBCAC8C7C6C5C47E
:10437000C2C1C0BFBEBDBCBBBAB9B8B7B6B5B4B395
:10438000B2B1B0AFAEADACABAAA9A8A8A7A6A5A480
:10439000A3A3A2A1A09F9F9E9D9C9C9B9A99999844
:1043A0009797969595949393929191908F8F8E8EE7
:1043B0008D8C8C8B8B8A8989888887878685858474
:1043C00084838382828181800000FF070000F87F60
:1043D0004FEA41034FEA5353A3F58063D3F11E0321
:1043E000C8BFD3F1210C0CDD4FF0004242EAC122DC
:1043F00042EA505232FA03FC8CEAE17CACEBE17009
:104400007047102BC4BF0020704703F5787CBCF1C7
:10441000FF3F04D06FF0004282EA2100704770B580
:1044200000F002F94992248000207047F2E710F072
:10443000004248BF4042B0FA80F310FA03F10AD0BC
:10444000C3F11D0303F580634FEA415002EB0352B1
:1044500002EBD12170474FF00000704751EA030C86
:1044600017D41CF5801F58BFBCF5801F00F10680D3
:10447000994218BF704708BF9042704707D711F59F
:10448000801F58BF13F5801F19D499427047894285
:1044900070471CF5801F08D5BCF5801FF7D58B42EF
:1044A00018BF704708BF824270474FF4001C1CEBD6
:1044B000410F38BF1CEB430F01D28B42704770B5E0
:1044C00000F0B2F8922449004FF000514FF08053B1
:1044D000FFF71ABEDFF848C170B51CEA111E1EBFF7
:1044E0001CEA13159EEA0C0F95EA0C0F00F06F8082
:1044F00081EA030423EA4C134EEAD47E21EA4C11EC
:1045000041F4801143F48013AE44A1FB024CA0FBA4
:104510000365AEF17F7E361955EB0C05A1FB034C0C
:104520004CF10003A0FB021C16EB0C06654153F195
:104530000003094218BF46F0010613F4007F0BD1B7
:104540004FEA03314FEA0530340341EA155140EA9E
:1045500016506FF003020AE04FEAC3214FEAC5206C
:10456000F40241EA555140EA56506FF0020202EB64
:104570002E4201EB025585EACE710AD05FEA440C67
:1045800018BF24F0004450F1000041F1000120EA7E
:10459000D47040F2FE7C624500D270BDA84214BFC8
:1045A0004FF080444FF04044002E08BF0024BEF17D
:1045B000806FA8BFA1F1C041BDE8704080F2828049
:1045C0004FF0000001F1C04101F0004170479EEA48
:1045D0000C0F0CEA131518BF95EA0C0F06D04FF01C
:1045E000000081EA030E0EF0004170BD00F01CF8DF
:1045F0008900013E00F007B800F009B84FEA430C0B
:104600005FEA5C5C08D081EA030100F05BB84FEA26
:10461000410C5FEA5C5CF6D14FF000000149704745
:104620000000FF070000F87F0EF1020E2EF0030ECF
:104630005EF8046B364205D4012A43EB030515F5F9
:10464000001F12D8012841EB010C1CF5001F0CD8EB
:104650000ED14FEAD17C15F5001F0CEB4C0C0CF180
:10466000020C08BF4CEBD37C04E04FF0080C01E0D7
:104670004FEAD37C0CEB4C0526FA05F606F007064C
:10468000B6F1040C06D20EEB860CBDE870404CF07F
:10469000010C6047DFE80CF0090B02024FF000410B
:1046A0004FF00000A1F5002170BD19461046012809
:1046B00051EB010418BFD4F5001484BF002001F0B1
:1046C000004170BD0808A0F500114FEA31017047A4
:1046D00053EA010C17D41CF5801F58BFBCF5801F8E
:1046E00000F106808B4218BF704708BF82427047B6
:1046F00007D713F5801F58BF11F5801F19D48B42BF
:1047000070479B4270471CF5801F08D5BCF5801F81
:10471000F7D5994218BF704708BF904270474FF4D1
:10472000001C1CEB430F38BF1CEB410F01D2994218
:1047300070470FB40CBC03BCFFF7C1BE43004FEA87
:10474000D30C4FEA3C0C43401FBF40070CF16051B3
:1047500013F0FE4F70471CF0006F03D100200CF0E7
:10476000004170470CF0004343EA507010B540EA36
:10477000CC0000F00EF800BF000000924FEA0001EC
:10478000FFF7A0BF4FF000414FF00000A1F500215E
:1047900070470EF1020E2EF0030E5EF8044B244219
:1047A00004D44FEA4102B2F17F4F11D84FEA4003DF
:1047B000B3F17F4F0CD80ED14FEAD07CB2F17F4FCE
:1047C0000CEB4C0C0CF1020C08BF4CEBD17C04E060
:1047D0004FF0080C01E04FEAD17C0CEB4C0324FABB
:1047E00003F404F00704B4F1040C06D20EEB840CBD
:1047F000BDE810404CF0010C6047DFE80CF0070802
:1048000002024FF00040A0F5800010BD08464200B3
:1048100018BFD2F1807288BF00F0004010BD4FF089
:104820004070E1EE100A7047FBF757BF0000000030
:104830000000000001020304060708090000000050
:104840000102030402400000000000A0000000007C
:1048500005400000000000C8000000000C400000FF
:104860000000409C00000000194000000020BCBE79
:104870000000000034400000BFC91B8E000000048F
:10488000B5400000504BCFD06607E2CF01000000DA
:104890006C4100003E8251AADFEEA7340100000007
:1048A000D9420000DCB5A0E23A301F97FFFFFFFFBE
:1048B000B4450000FD25A0C8E9A3C14FFFFFFFFFDD
:1048C000FF3F00000000008000000000FF3F0000EC
:1048D00000000080000000001849000800000020CF
:1048E0002C000000C4010008444900082C000020EE
:1048F000EC080000E00100081C000000430000007C
:10490000F8FFFFFF0C0000000E0000000F00000089
:104910002E000000F9F5FFFF00000000000000007D
:104920000000000000000000000000000000000087
:104930000000000000000000100000000100000066
:044940000024F4005B
:040000050800018965
:00000001FF
